{
  "_format": "hh-sol-artifact-1",
  "contractName": "NewEventAttendance",
  "sourceName": "contracts/NewEventAttendance.sol",
  "abi": [
    {
      "anonymous": false,
      "inputs": [
        {
          "indexed": true,
          "internalType": "address",
          "name": "attendee",
          "type": "address"
        },
        {
          "indexed": true,
          "internalType": "uint256",
          "name": "eventId",
          "type": "uint256"
        }
      ],
      "name": "AttendanceVerified",
      "type": "event"
    },
    {
      "inputs": [
        {
          "internalType": "address",
          "name": "",
          "type": "address"
        },
        {
          "internalType": "uint256",
          "name": "",
          "type": "uint256"
        }
      ],
      "name": "attendance",
      "outputs": [
        {
          "internalType": "bool",
          "name": "",
          "type": "bool"
        }
      ],
      "stateMutability": "view",
      "type": "function"
    },
    {
      "inputs": [
        {
          "internalType": "uint256",
          "name": "",
          "type": "uint256"
        }
      ],
      "name": "eventIds",
      "outputs": [
        {
          "internalType": "uint256",
          "name": "",
          "type": "uint256"
        }
      ],
      "stateMutability": "view",
      "type": "function"
    },
    {
      "inputs": [
        {
          "internalType": "uint256",
          "name": "",
          "type": "uint256"
        }
      ],
      "name": "events",
      "outputs": [
        {
          "internalType": "uint256",
          "name": "startDate",
          "type": "uint256"
        },
        {
          "internalType": "uint256",
          "name": "endDate",
          "type": "uint256"
        },
        {
          "internalType": "address",
          "name": "eventContractAddress",
          "type": "address"
        }
      ],
      "stateMutability": "view",
      "type": "function"
    },
    {
      "inputs": [],
      "name": "getAllEvents",
      "outputs": [
        {
          "internalType": "uint256[]",
          "name": "ids",
          "type": "uint256[]"
        },
        {
          "internalType": "address[]",
          "name": "contracts",
          "type": "address[]"
        }
      ],
      "stateMutability": "view",
      "type": "function"
    },
    {
      "inputs": [
        {
          "internalType": "address",
          "name": "attendee",
          "type": "address"
        },
        {
          "internalType": "uint256",
          "name": "eventId",
          "type": "uint256"
        }
      ],
      "name": "hasAttended",
      "outputs": [
        {
          "internalType": "bool",
          "name": "",
          "type": "bool"
        }
      ],
      "stateMutability": "view",
      "type": "function"
    },
    {
      "inputs": [
        {
          "internalType": "uint256",
          "name": "eventId",
          "type": "uint256"
        },
        {
          "internalType": "address",
          "name": "eventContract",
          "type": "address"
        },
        {
          "internalType": "uint256",
          "name": "startDate",
          "type": "uint256"
        },
        {
          "internalType": "uint256",
          "name": "endDate",
          "type": "uint256"
        }
      ],
      "name": "setEventDetails",
      "outputs": [],
      "stateMutability": "nonpayable",
      "type": "function"
    },
    {
      "inputs": [
        {
          "internalType": "uint256",
          "name": "eventId",
          "type": "uint256"
        }
      ],
      "name": "verifyAttendance",
      "outputs": [],
      "stateMutability": "nonpayable",
      "type": "function"
    }
  ],
  "bytecode": "0x6080604052348015600f57600080fd5b50610ed58061001f6000396000f3fe608060405234801561001057600080fd5b506004361061007d5760003560e01c80639a8d89551161005b5780639a8d895514610114578063b634a4df14610144578063bda1858014610160578063c27a500d1461017c5761007d565b80630b791430146100825780631882e38b146100b4578063998f6ac0146100e4575b600080fd5b61009c6004803603810190610097919061084c565b61019b565b6040516100ab939291906108c9565b60405180910390f35b6100ce60048036038101906100c9919061092c565b6101e5565b6040516100db9190610987565b60405180910390f35b6100fe60048036038101906100f9919061084c565b61024d565b60405161010b91906109a2565b60405180910390f35b61012e6004803603810190610129919061092c565b610271565b60405161013b9190610987565b60405180910390f35b61015e6004803603810190610159919061084c565b6102a0565b005b61017a600480360381019061017591906109bd565b6105ce565b005b61018461069e565b604051610192929190610ba0565b60405180910390f35b60006020528060005260406000206000915090508060000154908060010154908060020160009054906101000a900473ffffffffffffffffffffffffffffffffffffffff16905083565b6000600160008473ffffffffffffffffffffffffffffffffffffffff1673ffffffffffffffffffffffffffffffffffffffff168152602001908152602001600020600083815260200190815260200160002060009054906101000a900460ff16905092915050565b6002818154811061025d57600080fd5b906000526020600020016000915090505481565b60016020528160005260406000206020528060005260406000206000915091509054906101000a900460ff1681565b60008060008381526020019081526020016000209050600073ffffffffffffffffffffffffffffffffffffffff168160020160009054906101000a900473ffffffffffffffffffffffffffffffffffffffff1673ffffffffffffffffffffffffffffffffffffffff1603610349576040517f08c379a000000000000000000000000000000000000000000000000000000000815260040161034090610c34565b60405180910390fd5b80600001544210158015610361575080600101544211155b6103a0576040517f08c379a000000000000000000000000000000000000000000000000000000000815260040161039790610cc6565b60405180910390fd5b60008160020160009054906101000a900473ffffffffffffffffffffffffffffffffffffffff1673ffffffffffffffffffffffffffffffffffffffff166370a08231336040518263ffffffff1660e01b81526004016103ff9190610ce6565b602060405180830381865afa15801561041c573d6000803e3d6000fd5b505050506040513d601f19601f820116820180604052508101906104409190610d16565b11610480576040517f08c379a000000000000000000000000000000000000000000000000000000000815260040161047790610db5565b60405180910390fd5b600160003373ffffffffffffffffffffffffffffffffffffffff1673ffffffffffffffffffffffffffffffffffffffff168152602001908152602001600020600083815260200190815260200160002060009054906101000a900460ff161561051e576040517f08c379a000000000000000000000000000000000000000000000000000000000815260040161051590610e21565b60405180910390fd5b60018060003373ffffffffffffffffffffffffffffffffffffffff1673ffffffffffffffffffffffffffffffffffffffff168152602001908152602001600020600084815260200190815260200160002060006101000a81548160ff021916908315150217905550813373ffffffffffffffffffffffffffffffffffffffff167fff546e3134efe23d78a954fe7a4dde201f6d4989f372a5faa16ddd605306a64f60405160405180910390a35050565b60405180606001604052808381526020018281526020018473ffffffffffffffffffffffffffffffffffffffff16815250600080868152602001908152602001600020600082015181600001556020820151816001015560408201518160020160006101000a81548173ffffffffffffffffffffffffffffffffffffffff021916908373ffffffffffffffffffffffffffffffffffffffff160217905550905050600284908060018154018082558091505060019003906000526020600020016000909190919091505550505050565b6060806000600280549050905060008167ffffffffffffffff8111156106c7576106c6610e41565b5b6040519080825280602002602001820160405280156106f55781602001602082028036833780820191505090505b50905060005b828110156107b1576000806002838154811061071a57610719610e70565b5b9060005260206000200154815260200190815260200160002060020160009054906101000a900473ffffffffffffffffffffffffffffffffffffffff1682828151811061076a57610769610e70565b5b602002602001019073ffffffffffffffffffffffffffffffffffffffff16908173ffffffffffffffffffffffffffffffffffffffff168152505080806001019150506106fb565b506002818180548060200260200160405190810160405280929190818152602001828054801561080057602002820191906000526020600020905b8154815260200190600101908083116107ec575b505050505091509350935050509091565b600080fd5b6000819050919050565b61082981610816565b811461083457600080fd5b50565b60008135905061084681610820565b92915050565b60006020828403121561086257610861610811565b5b600061087084828501610837565b91505092915050565b61088281610816565b82525050565b600073ffffffffffffffffffffffffffffffffffffffff82169050919050565b60006108b382610888565b9050919050565b6108c3816108a8565b82525050565b60006060820190506108de6000830186610879565b6108eb6020830185610879565b6108f860408301846108ba565b949350505050565b610909816108a8565b811461091457600080fd5b50565b60008135905061092681610900565b92915050565b6000806040838503121561094357610942610811565b5b600061095185828601610917565b925050602061096285828601610837565b9150509250929050565b60008115159050919050565b6109818161096c565b82525050565b600060208201905061099c6000830184610978565b92915050565b60006020820190506109b76000830184610879565b92915050565b600080600080608085870312156109d7576109d6610811565b5b60006109e587828801610837565b94505060206109f687828801610917565b9350506040610a0787828801610837565b9250506060610a1887828801610837565b91505092959194509250565b600081519050919050565b600082825260208201905092915050565b6000819050602082019050919050565b610a5981610816565b82525050565b6000610a6b8383610a50565b60208301905092915050565b6000602082019050919050565b6000610a8f82610a24565b610a998185610a2f565b9350610aa483610a40565b8060005b83811015610ad5578151610abc8882610a5f565b9750610ac783610a77565b925050600181019050610aa8565b5085935050505092915050565b600081519050919050565b600082825260208201905092915050565b6000819050602082019050919050565b610b17816108a8565b82525050565b6000610b298383610b0e565b60208301905092915050565b6000602082019050919050565b6000610b4d82610ae2565b610b578185610aed565b9350610b6283610afe565b8060005b83811015610b93578151610b7a8882610b1d565b9750610b8583610b35565b925050600181019050610b66565b5085935050505092915050565b60006040820190508181036000830152610bba8185610a84565b90508181036020830152610bce8184610b42565b90509392505050565b600082825260208201905092915050565b7f4576656e7420646f6573206e6f742065786973742e0000000000000000000000600082015250565b6000610c1e601583610bd7565b9150610c2982610be8565b602082019050919050565b60006020820190508181036000830152610c4d81610c11565b9050919050565b7f417474656e64616e63652063616e206f6e6c792062652076657269666965642060008201527f647572696e6720746865206576656e7420706572696f642e0000000000000000602082015250565b6000610cb0603883610bd7565b9150610cbb82610c54565b604082019050919050565b60006020820190508181036000830152610cdf81610ca3565b9050919050565b6000602082019050610cfb60008301846108ba565b92915050565b600081519050610d1081610820565b92915050565b600060208284031215610d2c57610d2b610811565b5b6000610d3a84828501610d01565b91505092915050565b7f596f7520646f206e6f74206f776e2061207469636b657420666f72207468697360008201527f206576656e742e00000000000000000000000000000000000000000000000000602082015250565b6000610d9f602783610bd7565b9150610daa82610d43565b604082019050919050565b60006020820190508181036000830152610dce81610d92565b9050919050565b7f416c72656164792076657269666965642e000000000000000000000000000000600082015250565b6000610e0b601183610bd7565b9150610e1682610dd5565b602082019050919050565b60006020820190508181036000830152610e3a81610dfe565b9050919050565b7f4e487b7100000000000000000000000000000000000000000000000000000000600052604160045260246000fd5b7f4e487b7100000000000000000000000000000000000000000000000000000000600052603260045260246000fdfea264697066735822122089256b03c4882a7ed5dc249286c3b39c44dd884be37445274002e045ecbca26e64736f6c634300081a0033",
  "linkReferences": {},
  "deployedLinkReferences": {}
}