{
  "_format": "hh-sol-artifact-1",
  "contractName": "TicketMarketplace",
  "sourceName": "contracts/TicketMarketplace.sol",
  "abi": [
    {
      "inputs": [
        {
          "internalType": "address",
          "name": "initialOwner",
          "type": "address"
        },
        {
          "internalType": "address",
          "name": "_feeReceiver",
          "type": "address"
        }
      ],
      "stateMutability": "nonpayable",
      "type": "constructor"
    },
    {
      "anonymous": false,
      "inputs": [
        {
          "indexed": true,
          "internalType": "address",
          "name": "previousOwner",
          "type": "address"
        },
        {
          "indexed": true,
          "internalType": "address",
          "name": "newOwner",
          "type": "address"
        }
      ],
      "name": "OwnershipTransferred",
      "type": "event"
    },
    {
      "anonymous": false,
      "inputs": [
        {
          "indexed": true,
          "internalType": "address",
          "name": "nftContract",
          "type": "address"
        },
        {
          "indexed": true,
          "internalType": "uint256",
          "name": "tokenId",
          "type": "uint256"
        }
      ],
      "name": "TicketCancelled",
      "type": "event"
    },
    {
      "anonymous": false,
      "inputs": [
        {
          "indexed": true,
          "internalType": "address",
          "name": "nftContract",
          "type": "address"
        },
        {
          "indexed": true,
          "internalType": "uint256",
          "name": "tokenId",
          "type": "uint256"
        },
        {
          "indexed": false,
          "internalType": "uint256",
          "name": "price",
          "type": "uint256"
        },
        {
          "indexed": false,
          "internalType": "address",
          "name": "seller",
          "type": "address"
        }
      ],
      "name": "TicketListed",
      "type": "event"
    },
    {
      "anonymous": false,
      "inputs": [
        {
          "indexed": true,
          "internalType": "address",
          "name": "nftContract",
          "type": "address"
        },
        {
          "indexed": true,
          "internalType": "uint256",
          "name": "tokenId",
          "type": "uint256"
        },
        {
          "indexed": false,
          "internalType": "address",
          "name": "buyer",
          "type": "address"
        },
        {
          "indexed": false,
          "internalType": "address",
          "name": "seller",
          "type": "address"
        },
        {
          "indexed": false,
          "internalType": "uint256",
          "name": "price",
          "type": "uint256"
        }
      ],
      "name": "TicketSold",
      "type": "event"
    },
    {
      "inputs": [
        {
          "internalType": "uint256",
          "name": "",
          "type": "uint256"
        }
      ],
      "name": "allListings",
      "outputs": [
        {
          "internalType": "address",
          "name": "nftContract",
          "type": "address"
        },
        {
          "internalType": "uint256",
          "name": "tokenId",
          "type": "uint256"
        }
      ],
      "stateMutability": "view",
      "type": "function"
    },
    {
      "inputs": [
        {
          "internalType": "address",
          "name": "nftContract",
          "type": "address"
        },
        {
          "internalType": "uint256",
          "name": "tokenId",
          "type": "uint256"
        }
      ],
      "name": "buyTicket",
      "outputs": [],
      "stateMutability": "payable",
      "type": "function"
    },
    {
      "inputs": [
        {
          "internalType": "address",
          "name": "nftContract",
          "type": "address"
        },
        {
          "internalType": "uint256",
          "name": "tokenId",
          "type": "uint256"
        }
      ],
      "name": "cancelListing",
      "outputs": [],
      "stateMutability": "nonpayable",
      "type": "function"
    },
    {
      "inputs": [],
      "name": "feeReceiver",
      "outputs": [
        {
          "internalType": "address",
          "name": "",
          "type": "address"
        }
      ],
      "stateMutability": "view",
      "type": "function"
    },
    {
      "inputs": [],
      "name": "getAllActiveListings",
      "outputs": [
        {
          "components": [
            {
              "internalType": "address",
              "name": "nftContract",
              "type": "address"
            },
            {
              "internalType": "uint256",
              "name": "tokenId",
              "type": "uint256"
            }
          ],
          "internalType": "struct TicketMarketplace.NFTInfo[]",
          "name": "",
          "type": "tuple[]"
        }
      ],
      "stateMutability": "view",
      "type": "function"
    },
    {
      "inputs": [
        {
          "internalType": "address",
          "name": "nftContract",
          "type": "address"
        },
        {
          "internalType": "uint256",
          "name": "tokenId",
          "type": "uint256"
        },
        {
          "internalType": "uint256",
          "name": "price",
          "type": "uint256"
        }
      ],
      "name": "listTicket",
      "outputs": [],
      "stateMutability": "nonpayable",
      "type": "function"
    },
    {
      "inputs": [
        {
          "internalType": "address",
          "name": "",
          "type": "address"
        },
        {
          "internalType": "uint256",
          "name": "",
          "type": "uint256"
        }
      ],
      "name": "listings",
      "outputs": [
        {
          "internalType": "address",
          "name": "seller",
          "type": "address"
        },
        {
          "internalType": "uint256",
          "name": "price",
          "type": "uint256"
        },
        {
          "internalType": "bool",
          "name": "isActive",
          "type": "bool"
        }
      ],
      "stateMutability": "view",
      "type": "function"
    },
    {
      "inputs": [],
      "name": "owner",
      "outputs": [
        {
          "internalType": "address",
          "name": "",
          "type": "address"
        }
      ],
      "stateMutability": "view",
      "type": "function"
    },
    {
      "inputs": [],
      "name": "platformFee",
      "outputs": [
        {
          "internalType": "uint256",
          "name": "",
          "type": "uint256"
        }
      ],
      "stateMutability": "view",
      "type": "function"
    },
    {
      "inputs": [],
      "name": "renounceOwnership",
      "outputs": [],
      "stateMutability": "nonpayable",
      "type": "function"
    },
    {
      "inputs": [
        {
          "internalType": "uint256",
          "name": "newFee",
          "type": "uint256"
        }
      ],
      "name": "setPlatformFee",
      "outputs": [],
      "stateMutability": "nonpayable",
      "type": "function"
    },
    {
      "inputs": [
        {
          "internalType": "address",
          "name": "newOwner",
          "type": "address"
        }
      ],
      "name": "transferOwnership",
      "outputs": [],
      "stateMutability": "nonpayable",
      "type": "function"
    }
  ],
  "bytecode": "0x608060405260fa60045534801561001557600080fd5b5060405161212738038061212783398181016040528101906100379190610322565b6100536100486100b160201b60201c565b6100b960201b60201c565b600180819055506100698261017d60201b60201c565b80600560006101000a81548173ffffffffffffffffffffffffffffffffffffffff021916908373ffffffffffffffffffffffffffffffffffffffff1602179055505050610471565b600033905090565b60008060009054906101000a900473ffffffffffffffffffffffffffffffffffffffff169050816000806101000a81548173ffffffffffffffffffffffffffffffffffffffff021916908373ffffffffffffffffffffffffffffffffffffffff1602179055508173ffffffffffffffffffffffffffffffffffffffff168173ffffffffffffffffffffffffffffffffffffffff167f8be0079c531659141344cd1fd0a4f28419497f9722a3daafe3b4186f6b6457e060405160405180910390a35050565b61018b61020c60201b60201c565b600073ffffffffffffffffffffffffffffffffffffffff168173ffffffffffffffffffffffffffffffffffffffff16036101fa576040517f08c379a00000000000000000000000000000000000000000000000000000000081526004016101f1906103e5565b60405180910390fd5b610209816100b960201b60201c565b50565b61021a6100b160201b60201c565b73ffffffffffffffffffffffffffffffffffffffff1661023e61029660201b60201c565b73ffffffffffffffffffffffffffffffffffffffff1614610294576040517f08c379a000000000000000000000000000000000000000000000000000000000815260040161028b90610451565b60405180910390fd5b565b60008060009054906101000a900473ffffffffffffffffffffffffffffffffffffffff16905090565b600080fd5b600073ffffffffffffffffffffffffffffffffffffffff82169050919050565b60006102ef826102c4565b9050919050565b6102ff816102e4565b811461030a57600080fd5b50565b60008151905061031c816102f6565b92915050565b60008060408385031215610339576103386102bf565b5b60006103478582860161030d565b92505060206103588582860161030d565b9150509250929050565b600082825260208201905092915050565b7f4f776e61626c653a206e6577206f776e657220697320746865207a65726f206160008201527f6464726573730000000000000000000000000000000000000000000000000000602082015250565b60006103cf602683610362565b91506103da82610373565b604082019050919050565b600060208201905081810360008301526103fe816103c2565b9050919050565b7f4f776e61626c653a2063616c6c6572206973206e6f7420746865206f776e6572600082015250565b600061043b602083610362565b915061044682610405565b602082019050919050565b6000602082019050818103600083015261046a8161042e565b9050919050565b611ca7806104806000396000f3fe6080604052600436106100a65760003560e01c8063701e508411610064578063701e5084146101c1578063715018a6146101ec5780638da5cb5b14610203578063b2ddee061461022e578063b3f0067414610257578063f2fde38b14610282576100a6565b806207df30146100ab5780630eeaa2ef146100ea57806312e8e2c3146101285780631d66b15c1461015157806326232a2e1461017a57806366a5ef2f146101a5575b600080fd5b3480156100b757600080fd5b506100d260048036038101906100cd91906112b1565b6102ab565b6040516100e19392919061132a565b60405180910390f35b3480156100f657600080fd5b50610111600480360381019061010c9190611361565b61030f565b60405161011f92919061138e565b60405180910390f35b34801561013457600080fd5b5061014f600480360381019061014a9190611361565b610363565b005b34801561015d57600080fd5b50610178600480360381019061017391906113b7565b6103ba565b005b34801561018657600080fd5b5061018f610663565b60405161019c919061140a565b60405180910390f35b6101bf60048036038101906101ba91906112b1565b610669565b005b3480156101cd57600080fd5b506101d6610a4a565b6040516101e39190611521565b60405180910390f35b3480156101f857600080fd5b50610201610d54565b005b34801561020f57600080fd5b50610218610d68565b6040516102259190611543565b60405180910390f35b34801561023a57600080fd5b50610255600480360381019061025091906112b1565b610d91565b005b34801561026357600080fd5b5061026c610f9d565b6040516102799190611543565b60405180910390f35b34801561028e57600080fd5b506102a960048036038101906102a4919061155e565b610fc3565b005b6002602052816000526040600020602052806000526040600020600091509150508060000160009054906101000a900473ffffffffffffffffffffffffffffffffffffffff16908060010154908060020160009054906101000a900460ff16905083565b6003818154811061031f57600080fd5b90600052602060002090600202016000915090508060000160009054906101000a900473ffffffffffffffffffffffffffffffffffffffff16908060010154905082565b61036b611046565b6127108111156103b0576040517f08c379a00000000000000000000000000000000000000000000000000000000081526004016103a79061160e565b60405180910390fd5b8060048190555050565b600081116103fd576040517f08c379a00000000000000000000000000000000000000000000000000000000081526004016103f49061167a565b60405180910390fd5b8273ffffffffffffffffffffffffffffffffffffffff166323b872dd3330856040518463ffffffff1660e01b815260040161043a9392919061169a565b600060405180830381600087803b15801561045457600080fd5b505af1158015610468573d6000803e3d6000fd5b5050505060405180606001604052803373ffffffffffffffffffffffffffffffffffffffff16815260200182815260200160011515815250600260008573ffffffffffffffffffffffffffffffffffffffff1673ffffffffffffffffffffffffffffffffffffffff168152602001908152602001600020600084815260200190815260200160002060008201518160000160006101000a81548173ffffffffffffffffffffffffffffffffffffffff021916908373ffffffffffffffffffffffffffffffffffffffff1602179055506020820151816001015560408201518160020160006101000a81548160ff021916908315150217905550905050600360405180604001604052808573ffffffffffffffffffffffffffffffffffffffff16815260200184815250908060018154018082558091505060019003906000526020600020906002020160009091909190915060008201518160000160006101000a81548173ffffffffffffffffffffffffffffffffffffffff021916908373ffffffffffffffffffffffffffffffffffffffff160217905550602082015181600101555050818373ffffffffffffffffffffffffffffffffffffffff167f8eb7f103cc796712c31d344f1e05d5b095b445d2b7ac20e98c7cf75d9fc5a20783336040516106569291906116d1565b60405180910390a3505050565b60045481565b6106716110c4565b6000600260008473ffffffffffffffffffffffffffffffffffffffff1673ffffffffffffffffffffffffffffffffffffffff168152602001908152602001600020600083815260200190815260200160002090508060020160009054906101000a900460ff16610716576040517f08c379a000000000000000000000000000000000000000000000000000000000815260040161070d90611746565b60405180910390fd5b806001015434101561075d576040517f08c379a0000000000000000000000000000000000000000000000000000000008152600401610754906117b2565b60405180910390fd5b600061271060045483600101546107749190611801565b61077e9190611872565b9050600081836001015461079291906118a3565b905060008360000160009054906101000a900473ffffffffffffffffffffffffffffffffffffffff1673ffffffffffffffffffffffffffffffffffffffff16826040516107de90611908565b60006040518083038185875af1925050503d806000811461081b576040519150601f19603f3d011682016040523d82523d6000602084013e610820565b606091505b5050905080610864576040517f08c379a000000000000000000000000000000000000000000000000000000000815260040161085b90611969565b60405180910390fd5b6000600560009054906101000a900473ffffffffffffffffffffffffffffffffffffffff1673ffffffffffffffffffffffffffffffffffffffff16846040516108ac90611908565b60006040518083038185875af1925050503d80600081146108e9576040519150601f19603f3d011682016040523d82523d6000602084013e6108ee565b606091505b5050905080610932576040517f08c379a0000000000000000000000000000000000000000000000000000000008152600401610929906119d5565b60405180910390fd5b8673ffffffffffffffffffffffffffffffffffffffff166323b872dd3033896040518463ffffffff1660e01b815260040161096f9392919061169a565b600060405180830381600087803b15801561098957600080fd5b505af115801561099d573d6000803e3d6000fd5b5050505060008560020160006101000a81548160ff021916908315150217905550858773ffffffffffffffffffffffffffffffffffffffff167f44bd06404febb5a30803bcbe4429cdaf74ab54c2df93fd090fc19ab98fe3e540338860000160009054906101000a900473ffffffffffffffffffffffffffffffffffffffff168960010154604051610a319392919061169a565b60405180910390a35050505050610a46611113565b5050565b60606000805b600380549050811015610b49576002600060038381548110610a7557610a746119f5565b5b906000526020600020906002020160000160009054906101000a900473ffffffffffffffffffffffffffffffffffffffff1673ffffffffffffffffffffffffffffffffffffffff1673ffffffffffffffffffffffffffffffffffffffff168152602001908152602001600020600060038381548110610af757610af66119f5565b5b906000526020600020906002020160010154815260200190815260200160002060020160009054906101000a900460ff1615610b3c578180610b3890611a24565b9250505b8080600101915050610a50565b5060008167ffffffffffffffff811115610b6657610b65611a6c565b5b604051908082528060200260200182016040528015610b9f57816020015b610b8c6111e8565b815260200190600190039081610b845790505b5090506000805b600380549050811015610d4a576002600060038381548110610bcb57610bca6119f5565b5b906000526020600020906002020160000160009054906101000a900473ffffffffffffffffffffffffffffffffffffffff1673ffffffffffffffffffffffffffffffffffffffff1673ffffffffffffffffffffffffffffffffffffffff168152602001908152602001600020600060038381548110610c4d57610c4c6119f5565b5b906000526020600020906002020160010154815260200190815260200160002060020160009054906101000a900460ff1615610d3d5760038181548110610c9757610c966119f5565b5b90600052602060002090600202016040518060400160405290816000820160009054906101000a900473ffffffffffffffffffffffffffffffffffffffff1673ffffffffffffffffffffffffffffffffffffffff1673ffffffffffffffffffffffffffffffffffffffff168152602001600182015481525050838381518110610d2357610d226119f5565b5b60200260200101819052508180610d3990611a24565b9250505b8080600101915050610ba6565b5081935050505090565b610d5c611046565b610d66600061111c565b565b60008060009054906101000a900473ffffffffffffffffffffffffffffffffffffffff16905090565b6000600260008473ffffffffffffffffffffffffffffffffffffffff1673ffffffffffffffffffffffffffffffffffffffff168152602001908152602001600020600083815260200190815260200160002090503373ffffffffffffffffffffffffffffffffffffffff168160000160009054906101000a900473ffffffffffffffffffffffffffffffffffffffff1673ffffffffffffffffffffffffffffffffffffffff1614610e77576040517f08c379a0000000000000000000000000000000000000000000000000000000008152600401610e6e90611ae7565b60405180910390fd5b8060020160009054906101000a900460ff16610ec8576040517f08c379a0000000000000000000000000000000000000000000000000000000008152600401610ebf90611746565b60405180910390fd5b8273ffffffffffffffffffffffffffffffffffffffff166323b872dd3033856040518463ffffffff1660e01b8152600401610f059392919061169a565b600060405180830381600087803b158015610f1f57600080fd5b505af1158015610f33573d6000803e3d6000fd5b5050505060008160020160006101000a81548160ff021916908315150217905550818373ffffffffffffffffffffffffffffffffffffffff167fea2df1906aa0678464bc2a22d5ed1eefedfa34eef24e9db4a75034297414befe60405160405180910390a3505050565b600560009054906101000a900473ffffffffffffffffffffffffffffffffffffffff1681565b610fcb611046565b600073ffffffffffffffffffffffffffffffffffffffff168173ffffffffffffffffffffffffffffffffffffffff160361103a576040517f08c379a000000000000000000000000000000000000000000000000000000000815260040161103190611b79565b60405180910390fd5b6110438161111c565b50565b61104e6111e0565b73ffffffffffffffffffffffffffffffffffffffff1661106c610d68565b73ffffffffffffffffffffffffffffffffffffffff16146110c2576040517f08c379a00000000000000000000000000000000000000000000000000000000081526004016110b990611be5565b60405180910390fd5b565b600260015403611109576040517f08c379a000000000000000000000000000000000000000000000000000000000815260040161110090611c51565b60405180910390fd5b6002600181905550565b60018081905550565b60008060009054906101000a900473ffffffffffffffffffffffffffffffffffffffff169050816000806101000a81548173ffffffffffffffffffffffffffffffffffffffff021916908373ffffffffffffffffffffffffffffffffffffffff1602179055508173ffffffffffffffffffffffffffffffffffffffff168173ffffffffffffffffffffffffffffffffffffffff167f8be0079c531659141344cd1fd0a4f28419497f9722a3daafe3b4186f6b6457e060405160405180910390a35050565b600033905090565b6040518060400160405280600073ffffffffffffffffffffffffffffffffffffffff168152602001600081525090565b600080fd5b600073ffffffffffffffffffffffffffffffffffffffff82169050919050565b60006112488261121d565b9050919050565b6112588161123d565b811461126357600080fd5b50565b6000813590506112758161124f565b92915050565b6000819050919050565b61128e8161127b565b811461129957600080fd5b50565b6000813590506112ab81611285565b92915050565b600080604083850312156112c8576112c7611218565b5b60006112d685828601611266565b92505060206112e78582860161129c565b9150509250929050565b6112fa8161123d565b82525050565b6113098161127b565b82525050565b60008115159050919050565b6113248161130f565b82525050565b600060608201905061133f60008301866112f1565b61134c6020830185611300565b611359604083018461131b565b949350505050565b60006020828403121561137757611376611218565b5b60006113858482850161129c565b91505092915050565b60006040820190506113a360008301856112f1565b6113b06020830184611300565b9392505050565b6000806000606084860312156113d0576113cf611218565b5b60006113de86828701611266565b93505060206113ef8682870161129c565b92505060406114008682870161129c565b9150509250925092565b600060208201905061141f6000830184611300565b92915050565b600081519050919050565b600082825260208201905092915050565b6000819050602082019050919050565b61145a8161123d565b82525050565b6114698161127b565b82525050565b6040820160008201516114856000850182611451565b5060208201516114986020850182611460565b50505050565b60006114aa838361146f565b60408301905092915050565b6000602082019050919050565b60006114ce82611425565b6114d88185611430565b93506114e383611441565b8060005b838110156115145781516114fb888261149e565b9750611506836114b6565b9250506001810190506114e7565b5085935050505092915050565b6000602082019050818103600083015261153b81846114c3565b905092915050565b600060208201905061155860008301846112f1565b92915050565b60006020828403121561157457611573611218565b5b600061158284828501611266565b91505092915050565b600082825260208201905092915050565b7f466565206d757374206265206c657373207468616e206f7220657175616c207460008201527f6f20313030250000000000000000000000000000000000000000000000000000602082015250565b60006115f860268361158b565b91506116038261159c565b604082019050919050565b60006020820190508181036000830152611627816115eb565b9050919050565b7f5072696365206d7573742062652067726561746572207468616e203000000000600082015250565b6000611664601c8361158b565b915061166f8261162e565b602082019050919050565b6000602082019050818103600083015261169381611657565b9050919050565b60006060820190506116af60008301866112f1565b6116bc60208301856112f1565b6116c96040830184611300565b949350505050565b60006040820190506116e66000830185611300565b6116f360208301846112f1565b9392505050565b7f4c697374696e67206973206e6f74206163746976650000000000000000000000600082015250565b600061173060158361158b565b915061173b826116fa565b602082019050919050565b6000602082019050818103600083015261175f81611723565b9050919050565b7f496e73756666696369656e74207061796d656e74000000000000000000000000600082015250565b600061179c60148361158b565b91506117a782611766565b602082019050919050565b600060208201905081810360008301526117cb8161178f565b9050919050565b7f4e487b7100000000000000000000000000000000000000000000000000000000600052601160045260246000fd5b600061180c8261127b565b91506118178361127b565b92508282026118258161127b565b9150828204841483151761183c5761183b6117d2565b5b5092915050565b7f4e487b7100000000000000000000000000000000000000000000000000000000600052601260045260246000fd5b600061187d8261127b565b91506118888361127b565b92508261189857611897611843565b5b828204905092915050565b60006118ae8261127b565b91506118b98361127b565b92508282039050818111156118d1576118d06117d2565b5b92915050565b600081905092915050565b50565b60006118f26000836118d7565b91506118fd826118e2565b600082019050919050565b6000611913826118e5565b9150819050919050565b7f4661696c656420746f2073656e64204574686572000000000000000000000000600082015250565b600061195360148361158b565b915061195e8261191d565b602082019050919050565b6000602082019050818103600083015261198281611946565b9050919050565b7f4661696c656420746f2073656e64206665650000000000000000000000000000600082015250565b60006119bf60128361158b565b91506119ca82611989565b602082019050919050565b600060208201905081810360008301526119ee816119b2565b9050919050565b7f4e487b7100000000000000000000000000000000000000000000000000000000600052603260045260246000fd5b6000611a2f8261127b565b91507fffffffffffffffffffffffffffffffffffffffffffffffffffffffffffffffff8203611a6157611a606117d2565b5b600182019050919050565b7f4e487b7100000000000000000000000000000000000000000000000000000000600052604160045260246000fd5b7f4f6e6c792073656c6c65722063616e2063616e63656c00000000000000000000600082015250565b6000611ad160168361158b565b9150611adc82611a9b565b602082019050919050565b60006020820190508181036000830152611b0081611ac4565b9050919050565b7f4f776e61626c653a206e6577206f776e657220697320746865207a65726f206160008201527f6464726573730000000000000000000000000000000000000000000000000000602082015250565b6000611b6360268361158b565b9150611b6e82611b07565b604082019050919050565b60006020820190508181036000830152611b9281611b56565b9050919050565b7f4f776e61626c653a2063616c6c6572206973206e6f7420746865206f776e6572600082015250565b6000611bcf60208361158b565b9150611bda82611b99565b602082019050919050565b60006020820190508181036000830152611bfe81611bc2565b9050919050565b7f5265656e7472616e637947756172643a207265656e7472616e742063616c6c00600082015250565b6000611c3b601f8361158b565b9150611c4682611c05565b602082019050919050565b60006020820190508181036000830152611c6a81611c2e565b905091905056fea26469706673582212202b489438f5207f9b02fda15707929763ae61aa6274dafb95427c5a27f08922b464736f6c634300081a0033",
  "linkReferences": {},
  "deployedLinkReferences": {}
}