{
  "_format": "hh-sol-artifact-1",
  "contractName": "LiquidityPoolFactory",
  "sourceName": "contracts/LiquidityPoolFactory.sol",
  "abi": [
    {
      "inputs": [
        {
          "internalType": "address",
          "name": "initialOwner",
          "type": "address"
        }
      ],
      "stateMutability": "nonpayable",
      "type": "constructor"
    },
    {
      "anonymous": false,
      "inputs": [
        {
          "indexed": false,
          "internalType": "uint256",
          "name": "poolId",
          "type": "uint256"
        },
        {
          "indexed": false,
          "internalType": "address",
          "name": "user",
          "type": "address"
        },
        {
          "indexed": false,
          "internalType": "uint256",
          "name": "amount",
          "type": "uint256"
        }
      ],
      "name": "LiquidityAdded",
      "type": "event"
    },
    {
      "anonymous": false,
      "inputs": [
        {
          "indexed": true,
          "internalType": "address",
          "name": "previousOwner",
          "type": "address"
        },
        {
          "indexed": true,
          "internalType": "address",
          "name": "newOwner",
          "type": "address"
        }
      ],
      "name": "OwnershipTransferred",
      "type": "event"
    },
    {
      "anonymous": false,
      "inputs": [
        {
          "indexed": false,
          "internalType": "uint256",
          "name": "poolId",
          "type": "uint256"
        },
        {
          "indexed": false,
          "internalType": "address",
          "name": "token",
          "type": "address"
        },
        {
          "indexed": false,
          "internalType": "address",
          "name": "nft",
          "type": "address"
        }
      ],
      "name": "PoolCreated",
      "type": "event"
    },
    {
      "anonymous": false,
      "inputs": [
        {
          "indexed": false,
          "internalType": "uint256",
          "name": "poolId",
          "type": "uint256"
        },
        {
          "indexed": false,
          "internalType": "uint256",
          "name": "proposalId",
          "type": "uint256"
        },
        {
          "indexed": false,
          "internalType": "string",
          "name": "description",
          "type": "string"
        }
      ],
      "name": "ProposalCreated",
      "type": "event"
    },
    {
      "anonymous": false,
      "inputs": [
        {
          "indexed": false,
          "internalType": "uint256",
          "name": "poolId",
          "type": "uint256"
        },
        {
          "indexed": false,
          "internalType": "uint256",
          "name": "proposalId",
          "type": "uint256"
        },
        {
          "indexed": false,
          "internalType": "bool",
          "name": "passed",
          "type": "bool"
        }
      ],
      "name": "ProposalExecuted",
      "type": "event"
    },
    {
      "anonymous": false,
      "inputs": [
        {
          "indexed": false,
          "internalType": "uint256",
          "name": "poolId",
          "type": "uint256"
        },
        {
          "indexed": false,
          "internalType": "uint256",
          "name": "proposalId",
          "type": "uint256"
        },
        {
          "indexed": false,
          "internalType": "bool",
          "name": "support",
          "type": "bool"
        },
        {
          "indexed": false,
          "internalType": "address",
          "name": "voter",
          "type": "address"
        }
      ],
      "name": "Voted",
      "type": "event"
    },
    {
      "inputs": [
        {
          "internalType": "uint256",
          "name": "poolId",
          "type": "uint256"
        },
        {
          "internalType": "uint256",
          "name": "amount",
          "type": "uint256"
        }
      ],
      "name": "addLiquidity",
      "outputs": [],
      "stateMutability": "nonpayable",
      "type": "function"
    },
    {
      "inputs": [
        {
          "internalType": "address",
          "name": "_token",
          "type": "address"
        },
        {
          "internalType": "address",
          "name": "_nft",
          "type": "address"
        }
      ],
      "name": "createLiquidityPool",
      "outputs": [
        {
          "internalType": "uint256",
          "name": "poolId",
          "type": "uint256"
        }
      ],
      "stateMutability": "nonpayable",
      "type": "function"
    },
    {
      "inputs": [
        {
          "internalType": "uint256",
          "name": "poolId",
          "type": "uint256"
        },
        {
          "internalType": "string",
          "name": "description",
          "type": "string"
        },
        {
          "internalType": "uint256",
          "name": "votingDuration",
          "type": "uint256"
        }
      ],
      "name": "createProposal",
      "outputs": [],
      "stateMutability": "nonpayable",
      "type": "function"
    },
    {
      "inputs": [
        {
          "internalType": "uint256",
          "name": "poolId",
          "type": "uint256"
        },
        {
          "internalType": "uint256",
          "name": "proposalId",
          "type": "uint256"
        }
      ],
      "name": "executeProposal",
      "outputs": [],
      "stateMutability": "nonpayable",
      "type": "function"
    },
    {
      "inputs": [
        {
          "internalType": "uint256",
          "name": "poolId",
          "type": "uint256"
        }
      ],
      "name": "getPoolDetails",
      "outputs": [
        {
          "internalType": "address",
          "name": "token",
          "type": "address"
        },
        {
          "internalType": "address",
          "name": "nft",
          "type": "address"
        },
        {
          "internalType": "uint256",
          "name": "totalLiquidity",
          "type": "uint256"
        },
        {
          "internalType": "uint256",
          "name": "totalProposals",
          "type": "uint256"
        },
        {
          "internalType": "bool",
          "name": "isActive",
          "type": "bool"
        }
      ],
      "stateMutability": "view",
      "type": "function"
    },
    {
      "inputs": [
        {
          "internalType": "uint256",
          "name": "poolId",
          "type": "uint256"
        },
        {
          "internalType": "uint256",
          "name": "proposalId",
          "type": "uint256"
        }
      ],
      "name": "getProposalDetails",
      "outputs": [
        {
          "internalType": "string",
          "name": "description",
          "type": "string"
        },
        {
          "internalType": "uint256",
          "name": "endTime",
          "type": "uint256"
        },
        {
          "internalType": "uint256",
          "name": "votesFor",
          "type": "uint256"
        },
        {
          "internalType": "uint256",
          "name": "votesAgainst",
          "type": "uint256"
        },
        {
          "internalType": "bool",
          "name": "executed",
          "type": "bool"
        }
      ],
      "stateMutability": "view",
      "type": "function"
    },
    {
      "inputs": [],
      "name": "owner",
      "outputs": [
        {
          "internalType": "address",
          "name": "",
          "type": "address"
        }
      ],
      "stateMutability": "view",
      "type": "function"
    },
    {
      "inputs": [
        {
          "internalType": "uint256",
          "name": "",
          "type": "uint256"
        }
      ],
      "name": "pools",
      "outputs": [
        {
          "internalType": "address",
          "name": "token",
          "type": "address"
        },
        {
          "internalType": "address",
          "name": "nft",
          "type": "address"
        },
        {
          "internalType": "uint256",
          "name": "totalLiquidity",
          "type": "uint256"
        },
        {
          "internalType": "bool",
          "name": "active",
          "type": "bool"
        }
      ],
      "stateMutability": "view",
      "type": "function"
    },
    {
      "inputs": [],
      "name": "renounceOwnership",
      "outputs": [],
      "stateMutability": "nonpayable",
      "type": "function"
    },
    {
      "inputs": [
        {
          "internalType": "address",
          "name": "newOwner",
          "type": "address"
        }
      ],
      "name": "transferOwnership",
      "outputs": [],
      "stateMutability": "nonpayable",
      "type": "function"
    },
    {
      "inputs": [
        {
          "internalType": "uint256",
          "name": "poolId",
          "type": "uint256"
        },
        {
          "internalType": "uint256",
          "name": "proposalId",
          "type": "uint256"
        },
        {
          "internalType": "bool",
          "name": "support",
          "type": "bool"
        }
      ],
      "name": "vote",
      "outputs": [],
      "stateMutability": "nonpayable",
      "type": "function"
    }
  ],
  "bytecode": "0x608060405234801561001057600080fd5b506040516129e93803806129e9833981810160405281019061003291906102d4565b61004e61004361006360201b60201c565b61006b60201b60201c565b61005d8161012f60201b60201c565b50610410565b600033905090565b60008060009054906101000a900473ffffffffffffffffffffffffffffffffffffffff169050816000806101000a81548173ffffffffffffffffffffffffffffffffffffffff021916908373ffffffffffffffffffffffffffffffffffffffff1602179055508173ffffffffffffffffffffffffffffffffffffffff168173ffffffffffffffffffffffffffffffffffffffff167f8be0079c531659141344cd1fd0a4f28419497f9722a3daafe3b4186f6b6457e060405160405180910390a35050565b61013d6101be60201b60201c565b600073ffffffffffffffffffffffffffffffffffffffff168173ffffffffffffffffffffffffffffffffffffffff16036101ac576040517f08c379a00000000000000000000000000000000000000000000000000000000081526004016101a390610384565b60405180910390fd5b6101bb8161006b60201b60201c565b50565b6101cc61006360201b60201c565b73ffffffffffffffffffffffffffffffffffffffff166101f061024860201b60201c565b73ffffffffffffffffffffffffffffffffffffffff1614610246576040517f08c379a000000000000000000000000000000000000000000000000000000000815260040161023d906103f0565b60405180910390fd5b565b60008060009054906101000a900473ffffffffffffffffffffffffffffffffffffffff16905090565b600080fd5b600073ffffffffffffffffffffffffffffffffffffffff82169050919050565b60006102a182610276565b9050919050565b6102b181610296565b81146102bc57600080fd5b50565b6000815190506102ce816102a8565b92915050565b6000602082840312156102ea576102e9610271565b5b60006102f8848285016102bf565b91505092915050565b600082825260208201905092915050565b7f4f776e61626c653a206e6577206f776e657220697320746865207a65726f206160008201527f6464726573730000000000000000000000000000000000000000000000000000602082015250565b600061036e602683610301565b915061037982610312565b604082019050919050565b6000602082019050818103600083015261039d81610361565b9050919050565b7f4f776e61626c653a2063616c6c6572206973206e6f7420746865206f776e6572600082015250565b60006103da602083610301565b91506103e5826103a4565b602082019050919050565b60006020820190508181036000830152610409816103cd565b9050919050565b6125ca8061041f6000396000f3fe608060405234801561001057600080fd5b50600436106100a95760003560e01c806397decb3f1161007157806397decb3f1461013e5780639cd441da14610172578063a891bfa91461018e578063ac4afa38146101aa578063b8764c39146101dd578063f2fde38b14610211576100a9565b80631ab76712146100ae5780632384d3d0146100ca5780636a18ff7a146100fa578063715018a6146101165780638da5cb5b14610120575b600080fd5b6100c860048036038101906100c39190611456565b61022d565b005b6100e460048036038101906100df91906114f4565b610570565b6040516100f19190611543565b60405180910390f35b610114600480360381019061010f9190611596565b61073f565b005b61011e610a17565b005b610128610a2b565b60405161013591906115f8565b60405180910390f35b61015860048036038101906101539190611456565b610a54565b6040516101699594939291906116b2565b60405180910390f35b61018c60048036038101906101879190611456565b610bf6565b005b6101a860048036038101906101a39190611771565b610ed6565b005b6101c460048036038101906101bf91906117e5565b6110c1565b6040516101d49493929190611812565b60405180910390f35b6101f760048036038101906101f291906117e5565b61113e565b604051610208959493929190611857565b60405180910390f35b61022b600480360381019061022691906118aa565b611225565b005b61023760026112a8565b8210610278576040517f08c379a000000000000000000000000000000000000000000000000000000000815260040161026f90611923565b60405180910390fd5b6000600160008481526020019081526020016000209050806004018054905082106102d8576040517f08c379a00000000000000000000000000000000000000000000000000000000081526004016102cf9061198f565b60405180910390fd5b60008160040183815481106102f0576102ef6119af565b5b906000526020600020906007020190508060050160009054906101000a900460ff1615610352576040517f08c379a000000000000000000000000000000000000000000000000000000000815260040161034990611a2a565b60405180910390fd5b8060040154421015610399576040517f08c379a000000000000000000000000000000000000000000000000000000000815260040161039090611a96565b60405180910390fd5b60008160030154826002015411905060018260050160006101000a81548160ff021916908315150217905550801561052e5760008360020154905060008111610417576040517f08c379a000000000000000000000000000000000000000000000000000000000815260040161040e90611b02565b60405180910390fd5b60008460000160009054906101000a900473ffffffffffffffffffffffffffffffffffffffff1673ffffffffffffffffffffffffffffffffffffffff1663a9059cbb8660010160009054906101000a900473ffffffffffffffffffffffffffffffffffffffff16846040518363ffffffff1660e01b815260040161049c929190611b22565b6020604051808303816000875af11580156104bb573d6000803e3d6000fd5b505050506040513d601f19601f820116820180604052508101906104df9190611b60565b905080610521576040517f08c379a000000000000000000000000000000000000000000000000000000000815260040161051890611bd9565b60405180910390fd5b6000856002018190555050505b7f675c71fb6cbf880ec8fed9c345ef0bb3019cc44b99708edb402b85a7535d7d1985858360405161056193929190611bf9565b60405180910390a15050505050565b6000808273ffffffffffffffffffffffffffffffffffffffff166370a08231336040518263ffffffff1660e01b81526004016105ac91906115f8565b602060405180830381865afa1580156105c9573d6000803e3d6000fd5b505050506040513d601f19601f820116820180604052508101906105ed9190611c45565b1161062d576040517f08c379a000000000000000000000000000000000000000000000000000000000815260040161062490611ce4565b60405180910390fd5b61063760026112a8565b905061064360026112b6565b6000600160008381526020019081526020016000209050838160000160006101000a81548173ffffffffffffffffffffffffffffffffffffffff021916908373ffffffffffffffffffffffffffffffffffffffff160217905550828160010160006101000a81548173ffffffffffffffffffffffffffffffffffffffff021916908373ffffffffffffffffffffffffffffffffffffffff16021790555060018160050160006101000a81548160ff0219169083151502179055507f1a7a1d16c3ec9167827a7be3534be26288720a0bdd3de56d290f415db3d3e0a682858560405161073093929190611d04565b60405180910390a15092915050565b61074960026112a8565b831061078a576040517f08c379a000000000000000000000000000000000000000000000000000000000815260040161078190611923565b60405180910390fd5b6000600160008581526020019081526020016000209050806004018054905083106107ea576040517f08c379a00000000000000000000000000000000000000000000000000000000081526004016107e19061198f565b60405180910390fd5b6000816004018481548110610802576108016119af565b5b906000526020600020906007020190508060050160009054906101000a900460ff1615610864576040517f08c379a000000000000000000000000000000000000000000000000000000000815260040161085b90611a2a565b60405180910390fd5b8060060160003373ffffffffffffffffffffffffffffffffffffffff1673ffffffffffffffffffffffffffffffffffffffff16815260200190815260200160002060009054906101000a900460ff16156108f3576040517f08c379a00000000000000000000000000000000000000000000000000000000081526004016108ea90611d87565b60405180910390fd5b80600401544210610939576040517f08c379a000000000000000000000000000000000000000000000000000000000815260040161093090611df3565b60405180910390fd5b821561095e5780600201600081548092919061095490611e42565b9190505550610979565b80600301600081548092919061097390611e42565b91905055505b60018160060160003373ffffffffffffffffffffffffffffffffffffffff1673ffffffffffffffffffffffffffffffffffffffff16815260200190815260200160002060006101000a81548160ff0219169083151502179055507f07678e29746e6a183bd25134bc8ca37ca2287f74ac964b896f86e16d8d4ba78785858533604051610a089493929190611e8a565b60405180910390a15050505050565b610a1f6112cc565b610a29600061134a565b565b60008060009054906101000a900473ffffffffffffffffffffffffffffffffffffffff16905090565b6060600080600080610a6660026112a8565b8710610aa7576040517f08c379a0000000000000000000000000000000000000000000000000000000008152600401610a9e90611923565b60405180910390fd5b600060016000898152602001908152602001600020905080600401805490508710610b07576040517f08c379a0000000000000000000000000000000000000000000000000000000008152600401610afe9061198f565b60405180910390fd5b6000816004018881548110610b1f57610b1e6119af565b5b90600052602060002090600702019050806001018160040154826002015483600301548460050160009054906101000a900460ff16848054610b6090611efe565b80601f0160208091040260200160405190810160405280929190818152602001828054610b8c90611efe565b8015610bd95780601f10610bae57610100808354040283529160200191610bd9565b820191906000526020600020905b815481529060010190602001808311610bbc57829003601f168201915b505050505094509650965096509650965050509295509295909350565b610c0060026112a8565b8210610c41576040517f08c379a0000000000000000000000000000000000000000000000000000000008152600401610c3890611923565b60405180910390fd5b6000600160008481526020019081526020016000209050818160000160009054906101000a900473ffffffffffffffffffffffffffffffffffffffff1673ffffffffffffffffffffffffffffffffffffffff1663dd62ed3e33306040518363ffffffff1660e01b8152600401610cb8929190611f2f565b602060405180830381865afa158015610cd5573d6000803e3d6000fd5b505050506040513d601f19601f82011682018060405250810190610cf99190611c45565b1015610d3a576040517f08c379a0000000000000000000000000000000000000000000000000000000008152600401610d3190611fa4565b60405180910390fd5b60008160000160009054906101000a900473ffffffffffffffffffffffffffffffffffffffff1673ffffffffffffffffffffffffffffffffffffffff166323b872dd3330866040518463ffffffff1660e01b8152600401610d9d93929190611fc4565b6020604051808303816000875af1158015610dbc573d6000803e3d6000fd5b505050506040513d601f19601f82011682018060405250810190610de09190611b60565b905080610e22576040517f08c379a0000000000000000000000000000000000000000000000000000000008152600401610e1990612047565b60405180910390fd5b828260030160003373ffffffffffffffffffffffffffffffffffffffff1673ffffffffffffffffffffffffffffffffffffffff1681526020019081526020016000206000828254610e739190612067565b9250508190555082826002016000828254610e8e9190612067565b925050819055507fc733c2813826d31c105dbff518b08258e9e7aeb3eb1c7c7f642d77696faf501d843385604051610ec89392919061209b565b60405180910390a150505050565b610ee060026112a8565b8410610f21576040517f08c379a0000000000000000000000000000000000000000000000000000000008152600401610f1890611923565b60405180910390fd5b600060016000868152602001908152602001600020905060008160010160009054906101000a900473ffffffffffffffffffffffffffffffffffffffff1673ffffffffffffffffffffffffffffffffffffffff166370a08231336040518263ffffffff1660e01b8152600401610f9791906115f8565b602060405180830381865afa158015610fb4573d6000803e3d6000fd5b505050506040513d601f19601f82011682018060405250810190610fd89190611c45565b11611018576040517f08c379a000000000000000000000000000000000000000000000000000000000815260040161100f90612144565b60405180910390fd5b6000816004018054905090506000826004016001816001815401808255809150500390600052602060002090600702019050818160000181905550858582600101918261106692919061234a565b5083426110739190612067565b81600401819055507f7aade497c2cd4241d757f694370d0e4a250bfa251b3ab287406b2ab58d3fdad6878388886040516110b09493929190612456565b60405180910390a150505050505050565b60016020528060005260406000206000915090508060000160009054906101000a900473ffffffffffffffffffffffffffffffffffffffff16908060010160009054906101000a900473ffffffffffffffffffffffffffffffffffffffff16908060020154908060050160009054906101000a900460ff16905084565b600080600080600061115060026112a8565b8610611191576040517f08c379a000000000000000000000000000000000000000000000000000000000815260040161118890611923565b60405180910390fd5b60006001600088815260200190815260200160002090508060000160009054906101000a900473ffffffffffffffffffffffffffffffffffffffff168160010160009054906101000a900473ffffffffffffffffffffffffffffffffffffffff16826002015483600401805490508460050160009054906101000a900460ff16955095509550955095505091939590929450565b61122d6112cc565b600073ffffffffffffffffffffffffffffffffffffffff168173ffffffffffffffffffffffffffffffffffffffff160361129c576040517f08c379a000000000000000000000000000000000000000000000000000000000815260040161129390612508565b60405180910390fd5b6112a58161134a565b50565b600081600001549050919050565b6001816000016000828254019250508190555050565b6112d461140e565b73ffffffffffffffffffffffffffffffffffffffff166112f2610a2b565b73ffffffffffffffffffffffffffffffffffffffff1614611348576040517f08c379a000000000000000000000000000000000000000000000000000000000815260040161133f90612574565b60405180910390fd5b565b60008060009054906101000a900473ffffffffffffffffffffffffffffffffffffffff169050816000806101000a81548173ffffffffffffffffffffffffffffffffffffffff021916908373ffffffffffffffffffffffffffffffffffffffff1602179055508173ffffffffffffffffffffffffffffffffffffffff168173ffffffffffffffffffffffffffffffffffffffff167f8be0079c531659141344cd1fd0a4f28419497f9722a3daafe3b4186f6b6457e060405160405180910390a35050565b600033905090565b600080fd5b600080fd5b6000819050919050565b61143381611420565b811461143e57600080fd5b50565b6000813590506114508161142a565b92915050565b6000806040838503121561146d5761146c611416565b5b600061147b85828601611441565b925050602061148c85828601611441565b9150509250929050565b600073ffffffffffffffffffffffffffffffffffffffff82169050919050565b60006114c182611496565b9050919050565b6114d1816114b6565b81146114dc57600080fd5b50565b6000813590506114ee816114c8565b92915050565b6000806040838503121561150b5761150a611416565b5b6000611519858286016114df565b925050602061152a858286016114df565b9150509250929050565b61153d81611420565b82525050565b60006020820190506115586000830184611534565b92915050565b60008115159050919050565b6115738161155e565b811461157e57600080fd5b50565b6000813590506115908161156a565b92915050565b6000806000606084860312156115af576115ae611416565b5b60006115bd86828701611441565b93505060206115ce86828701611441565b92505060406115df86828701611581565b9150509250925092565b6115f2816114b6565b82525050565b600060208201905061160d60008301846115e9565b92915050565b600081519050919050565b600082825260208201905092915050565b60005b8381101561164d578082015181840152602081019050611632565b60008484015250505050565b6000601f19601f8301169050919050565b600061167582611613565b61167f818561161e565b935061168f81856020860161162f565b61169881611659565b840191505092915050565b6116ac8161155e565b82525050565b600060a08201905081810360008301526116cc818861166a565b90506116db6020830187611534565b6116e86040830186611534565b6116f56060830185611534565b61170260808301846116a3565b9695505050505050565b600080fd5b600080fd5b600080fd5b60008083601f8401126117315761173061170c565b5b8235905067ffffffffffffffff81111561174e5761174d611711565b5b60208301915083600182028301111561176a57611769611716565b5b9250929050565b6000806000806060858703121561178b5761178a611416565b5b600061179987828801611441565b945050602085013567ffffffffffffffff8111156117ba576117b961141b565b5b6117c68782880161171b565b935093505060406117d987828801611441565b91505092959194509250565b6000602082840312156117fb576117fa611416565b5b600061180984828501611441565b91505092915050565b600060808201905061182760008301876115e9565b61183460208301866115e9565b6118416040830185611534565b61184e60608301846116a3565b95945050505050565b600060a08201905061186c60008301886115e9565b61187960208301876115e9565b6118866040830186611534565b6118936060830185611534565b6118a060808301846116a3565b9695505050505050565b6000602082840312156118c0576118bf611416565b5b60006118ce848285016114df565b91505092915050565b7f506f6f6c20646f6573206e6f7420657869737400000000000000000000000000600082015250565b600061190d60138361161e565b9150611918826118d7565b602082019050919050565b6000602082019050818103600083015261193c81611900565b9050919050565b7f50726f706f73616c20646f6573206e6f74206578697374000000000000000000600082015250565b600061197960178361161e565b915061198482611943565b602082019050919050565b600060208201905081810360008301526119a88161196c565b9050919050565b7f4e487b7100000000000000000000000000000000000000000000000000000000600052603260045260246000fd5b7f50726f706f73616c20616c726561647920657865637574656400000000000000600082015250565b6000611a1460198361161e565b9150611a1f826119de565b602082019050919050565b60006020820190508181036000830152611a4381611a07565b9050919050565b7f566f74696e67207374696c6c206f6e676f696e67000000000000000000000000600082015250565b6000611a8060148361161e565b9150611a8b82611a4a565b602082019050919050565b60006020820190508181036000830152611aaf81611a73565b9050919050565b7f4e6f2066756e647320746f207472616e73666572000000000000000000000000600082015250565b6000611aec60148361161e565b9150611af782611ab6565b602082019050919050565b60006020820190508181036000830152611b1b81611adf565b9050919050565b6000604082019050611b3760008301856115e9565b611b446020830184611534565b9392505050565b600081519050611b5a8161156a565b92915050565b600060208284031215611b7657611b75611416565b5b6000611b8484828501611b4b565b91505092915050565b7f5472616e7366657220746f204e465420636f6e7472616374206661696c656400600082015250565b6000611bc3601f8361161e565b9150611bce82611b8d565b602082019050919050565b60006020820190508181036000830152611bf281611bb6565b9050919050565b6000606082019050611c0e6000830186611534565b611c1b6020830185611534565b611c2860408301846116a3565b949350505050565b600081519050611c3f8161142a565b92915050565b600060208284031215611c5b57611c5a611416565b5b6000611c6984828501611c30565b91505092915050565b7f596f75206d757374206f776e20616e204e465420746f2063726561746520612060008201527f706f6f6c00000000000000000000000000000000000000000000000000000000602082015250565b6000611cce60248361161e565b9150611cd982611c72565b604082019050919050565b60006020820190508181036000830152611cfd81611cc1565b9050919050565b6000606082019050611d196000830186611534565b611d2660208301856115e9565b611d3360408301846115e9565b949350505050565b7f416c726561647920766f74656400000000000000000000000000000000000000600082015250565b6000611d71600d8361161e565b9150611d7c82611d3b565b602082019050919050565b60006020820190508181036000830152611da081611d64565b9050919050565b7f566f74696e6720706572696f6420656e64656400000000000000000000000000600082015250565b6000611ddd60138361161e565b9150611de882611da7565b602082019050919050565b60006020820190508181036000830152611e0c81611dd0565b9050919050565b7f4e487b7100000000000000000000000000000000000000000000000000000000600052601160045260246000fd5b6000611e4d82611420565b91507fffffffffffffffffffffffffffffffffffffffffffffffffffffffffffffffff8203611e7f57611e7e611e13565b5b600182019050919050565b6000608082019050611e9f6000830187611534565b611eac6020830186611534565b611eb960408301856116a3565b611ec660608301846115e9565b95945050505050565b7f4e487b7100000000000000000000000000000000000000000000000000000000600052602260045260246000fd5b60006002820490506001821680611f1657607f821691505b602082108103611f2957611f28611ecf565b5b50919050565b6000604082019050611f4460008301856115e9565b611f5160208301846115e9565b9392505050565b7f496e73756666696369656e7420746f6b656e20616c6c6f77616e636500000000600082015250565b6000611f8e601c8361161e565b9150611f9982611f58565b602082019050919050565b60006020820190508181036000830152611fbd81611f81565b9050919050565b6000606082019050611fd960008301866115e9565b611fe660208301856115e9565b611ff36040830184611534565b949350505050565b7f546f6b656e207472616e73666572206661696c65640000000000000000000000600082015250565b600061203160158361161e565b915061203c82611ffb565b602082019050919050565b6000602082019050818103600083015261206081612024565b9050919050565b600061207282611420565b915061207d83611420565b925082820190508082111561209557612094611e13565b5b92915050565b60006060820190506120b06000830186611534565b6120bd60208301856115e9565b6120ca6040830184611534565b949350505050565b7f596f75206d757374206f776e20616e204e465420746f2063726561746520612060008201527f70726f706f73616c000000000000000000000000000000000000000000000000602082015250565b600061212e60288361161e565b9150612139826120d2565b604082019050919050565b6000602082019050818103600083015261215d81612121565b9050919050565b600082905092915050565b7f4e487b7100000000000000000000000000000000000000000000000000000000600052604160045260246000fd5b60008190508160005260206000209050919050565b60006020601f8301049050919050565b600082821b905092915050565b6000600883026122007fffffffffffffffffffffffffffffffffffffffffffffffffffffffffffffffff826121c3565b61220a86836121c3565b95508019841693508086168417925050509392505050565b6000819050919050565b600061224761224261223d84611420565b612222565b611420565b9050919050565b6000819050919050565b6122618361222c565b61227561226d8261224e565b8484546121d0565b825550505050565b600090565b61228a61227d565b612295818484612258565b505050565b5b818110156122b9576122ae600082612282565b60018101905061229b565b5050565b601f8211156122fe576122cf8161219e565b6122d8846121b3565b810160208510156122e7578190505b6122fb6122f3856121b3565b83018261229a565b50505b505050565b600082821c905092915050565b600061232160001984600802612303565b1980831691505092915050565b600061233a8383612310565b9150826002028217905092915050565b6123548383612164565b67ffffffffffffffff81111561236d5761236c61216f565b5b6123778254611efe565b6123828282856122bd565b6000601f8311600181146123b1576000841561239f578287013590505b6123a9858261232e565b865550612411565b601f1984166123bf8661219e565b60005b828110156123e7578489013582556001820191506020850194506020810190506123c2565b868310156124045784890135612400601f891682612310565b8355505b6001600288020188555050505b50505050505050565b82818337600083830152505050565b6000612435838561161e565b935061244283858461241a565b61244b83611659565b840190509392505050565b600060608201905061246b6000830187611534565b6124786020830186611534565b818103604083015261248b818486612429565b905095945050505050565b7f4f776e61626c653a206e6577206f776e657220697320746865207a65726f206160008201527f6464726573730000000000000000000000000000000000000000000000000000602082015250565b60006124f260268361161e565b91506124fd82612496565b604082019050919050565b60006020820190508181036000830152612521816124e5565b9050919050565b7f4f776e61626c653a2063616c6c6572206973206e6f7420746865206f776e6572600082015250565b600061255e60208361161e565b915061256982612528565b602082019050919050565b6000602082019050818103600083015261258d81612551565b905091905056fea2646970667358221220833c8f9e0eb64e73b27f6293da7f0bd18d3e8c477c1cd5349af7e7c4d070883164736f6c634300081a0033",
  "linkReferences": {},
  "deployedLinkReferences": {}
}