{
  "_format": "hh-sol-artifact-1",
  "contractName": "TicketMarketplace",
  "sourceName": "contracts/TicketMarketplace.sol",
  "abi": [
    {
      "inputs": [
        {
          "internalType": "address",
          "name": "initialOwner",
          "type": "address"
        },
        {
          "internalType": "address",
          "name": "_feeReceiver",
          "type": "address"
        }
      ],
      "stateMutability": "nonpayable",
      "type": "constructor"
    },
    {
      "anonymous": false,
      "inputs": [
        {
          "indexed": true,
          "internalType": "address",
          "name": "previousOwner",
          "type": "address"
        },
        {
          "indexed": true,
          "internalType": "address",
          "name": "newOwner",
          "type": "address"
        }
      ],
      "name": "OwnershipTransferred",
      "type": "event"
    },
    {
      "anonymous": false,
      "inputs": [
        {
          "indexed": true,
          "internalType": "address",
          "name": "nftContract",
          "type": "address"
        },
        {
          "indexed": true,
          "internalType": "uint256",
          "name": "tokenId",
          "type": "uint256"
        }
      ],
      "name": "TicketCancelled",
      "type": "event"
    },
    {
      "anonymous": false,
      "inputs": [
        {
          "indexed": true,
          "internalType": "address",
          "name": "nftContract",
          "type": "address"
        },
        {
          "indexed": true,
          "internalType": "uint256",
          "name": "tokenId",
          "type": "uint256"
        },
        {
          "indexed": false,
          "internalType": "uint256",
          "name": "price",
          "type": "uint256"
        },
        {
          "indexed": false,
          "internalType": "address",
          "name": "seller",
          "type": "address"
        }
      ],
      "name": "TicketListed",
      "type": "event"
    },
    {
      "anonymous": false,
      "inputs": [
        {
          "indexed": true,
          "internalType": "address",
          "name": "nftContract",
          "type": "address"
        },
        {
          "indexed": true,
          "internalType": "uint256",
          "name": "tokenId",
          "type": "uint256"
        },
        {
          "indexed": false,
          "internalType": "address",
          "name": "buyer",
          "type": "address"
        },
        {
          "indexed": false,
          "internalType": "address",
          "name": "seller",
          "type": "address"
        },
        {
          "indexed": false,
          "internalType": "uint256",
          "name": "price",
          "type": "uint256"
        }
      ],
      "name": "TicketSold",
      "type": "event"
    },
    {
      "inputs": [
        {
          "internalType": "address",
          "name": "nftContract",
          "type": "address"
        },
        {
          "internalType": "uint256",
          "name": "tokenId",
          "type": "uint256"
        }
      ],
      "name": "buyTicket",
      "outputs": [],
      "stateMutability": "payable",
      "type": "function"
    },
    {
      "inputs": [
        {
          "internalType": "address",
          "name": "nftContract",
          "type": "address"
        },
        {
          "internalType": "uint256",
          "name": "tokenId",
          "type": "uint256"
        }
      ],
      "name": "cancelListing",
      "outputs": [],
      "stateMutability": "nonpayable",
      "type": "function"
    },
    {
      "inputs": [],
      "name": "feeReceiver",
      "outputs": [
        {
          "internalType": "address",
          "name": "",
          "type": "address"
        }
      ],
      "stateMutability": "view",
      "type": "function"
    },
    {
      "inputs": [
        {
          "internalType": "address",
          "name": "nftContract",
          "type": "address"
        },
        {
          "internalType": "uint256",
          "name": "tokenId",
          "type": "uint256"
        },
        {
          "internalType": "uint256",
          "name": "price",
          "type": "uint256"
        }
      ],
      "name": "listTicket",
      "outputs": [],
      "stateMutability": "nonpayable",
      "type": "function"
    },
    {
      "inputs": [
        {
          "internalType": "address",
          "name": "",
          "type": "address"
        },
        {
          "internalType": "uint256",
          "name": "",
          "type": "uint256"
        }
      ],
      "name": "listings",
      "outputs": [
        {
          "internalType": "address",
          "name": "seller",
          "type": "address"
        },
        {
          "internalType": "uint256",
          "name": "price",
          "type": "uint256"
        },
        {
          "internalType": "bool",
          "name": "isActive",
          "type": "bool"
        }
      ],
      "stateMutability": "view",
      "type": "function"
    },
    {
      "inputs": [],
      "name": "owner",
      "outputs": [
        {
          "internalType": "address",
          "name": "",
          "type": "address"
        }
      ],
      "stateMutability": "view",
      "type": "function"
    },
    {
      "inputs": [],
      "name": "platformFee",
      "outputs": [
        {
          "internalType": "uint256",
          "name": "",
          "type": "uint256"
        }
      ],
      "stateMutability": "view",
      "type": "function"
    },
    {
      "inputs": [],
      "name": "renounceOwnership",
      "outputs": [],
      "stateMutability": "nonpayable",
      "type": "function"
    },
    {
      "inputs": [
        {
          "internalType": "uint256",
          "name": "newFee",
          "type": "uint256"
        }
      ],
      "name": "setPlatformFee",
      "outputs": [],
      "stateMutability": "nonpayable",
      "type": "function"
    },
    {
      "inputs": [
        {
          "internalType": "address",
          "name": "newOwner",
          "type": "address"
        }
      ],
      "name": "transferOwnership",
      "outputs": [],
      "stateMutability": "nonpayable",
      "type": "function"
    }
  ],
  "bytecode": "0x608060405260fa60035534801561001557600080fd5b50604051611a84380380611a8483398181016040528101906100379190610322565b6100536100486100b160201b60201c565b6100b960201b60201c565b600180819055506100698261017d60201b60201c565b80600460006101000a81548173ffffffffffffffffffffffffffffffffffffffff021916908373ffffffffffffffffffffffffffffffffffffffff1602179055505050610471565b600033905090565b60008060009054906101000a900473ffffffffffffffffffffffffffffffffffffffff169050816000806101000a81548173ffffffffffffffffffffffffffffffffffffffff021916908373ffffffffffffffffffffffffffffffffffffffff1602179055508173ffffffffffffffffffffffffffffffffffffffff168173ffffffffffffffffffffffffffffffffffffffff167f8be0079c531659141344cd1fd0a4f28419497f9722a3daafe3b4186f6b6457e060405160405180910390a35050565b61018b61020c60201b60201c565b600073ffffffffffffffffffffffffffffffffffffffff168173ffffffffffffffffffffffffffffffffffffffff16036101fa576040517f08c379a00000000000000000000000000000000000000000000000000000000081526004016101f1906103e5565b60405180910390fd5b610209816100b960201b60201c565b50565b61021a6100b160201b60201c565b73ffffffffffffffffffffffffffffffffffffffff1661023e61029660201b60201c565b73ffffffffffffffffffffffffffffffffffffffff1614610294576040517f08c379a000000000000000000000000000000000000000000000000000000000815260040161028b90610451565b60405180910390fd5b565b60008060009054906101000a900473ffffffffffffffffffffffffffffffffffffffff16905090565b600080fd5b600073ffffffffffffffffffffffffffffffffffffffff82169050919050565b60006102ef826102c4565b9050919050565b6102ff816102e4565b811461030a57600080fd5b50565b60008151905061031c816102f6565b92915050565b60008060408385031215610339576103386102bf565b5b60006103478582860161030d565b92505060206103588582860161030d565b9150509250929050565b600082825260208201905092915050565b7f4f776e61626c653a206e6577206f776e657220697320746865207a65726f206160008201527f6464726573730000000000000000000000000000000000000000000000000000602082015250565b60006103cf602683610362565b91506103da82610373565b604082019050919050565b600060208201905081810360008301526103fe816103c2565b9050919050565b7f4f776e61626c653a2063616c6c6572206973206e6f7420746865206f776e6572600082015250565b600061043b602083610362565b915061044682610405565b602082019050919050565b6000602082019050818103600083015261046a8161042e565b9050919050565b611604806104806000396000f3fe6080604052600436106100905760003560e01c8063715018a611610059578063715018a61461016d5780638da5cb5b14610184578063b2ddee06146101af578063b3f00674146101d8578063f2fde38b1461020357610090565b806207df301461009557806312e8e2c3146100d45780631d66b15c146100fd57806326232a2e1461012657806366a5ef2f14610151575b600080fd5b3480156100a157600080fd5b506100bc60048036038101906100b79190610dfb565b61022c565b6040516100cb93929190610e74565b60405180910390f35b3480156100e057600080fd5b506100fb60048036038101906100f69190610eab565b610290565b005b34801561010957600080fd5b50610124600480360381019061011f9190610ed8565b6102e7565b005b34801561013257600080fd5b5061013b6104e7565b6040516101489190610f2b565b60405180910390f35b61016b60048036038101906101669190610dfb565b6104ed565b005b34801561017957600080fd5b506101826108ce565b005b34801561019057600080fd5b506101996108e2565b6040516101a69190610f46565b60405180910390f35b3480156101bb57600080fd5b506101d660048036038101906101d19190610dfb565b61090b565b005b3480156101e457600080fd5b506101ed610b17565b6040516101fa9190610f46565b60405180910390f35b34801561020f57600080fd5b5061022a60048036038101906102259190610f61565b610b3d565b005b6002602052816000526040600020602052806000526040600020600091509150508060000160009054906101000a900473ffffffffffffffffffffffffffffffffffffffff16908060010154908060020160009054906101000a900460ff16905083565b610298610bc0565b6127108111156102dd576040517f08c379a00000000000000000000000000000000000000000000000000000000081526004016102d490611011565b60405180910390fd5b8060038190555050565b6000811161032a576040517f08c379a00000000000000000000000000000000000000000000000000000000081526004016103219061107d565b60405180910390fd5b8273ffffffffffffffffffffffffffffffffffffffff166323b872dd3330856040518463ffffffff1660e01b81526004016103679392919061109d565b600060405180830381600087803b15801561038157600080fd5b505af1158015610395573d6000803e3d6000fd5b5050505060405180606001604052803373ffffffffffffffffffffffffffffffffffffffff16815260200182815260200160011515815250600260008573ffffffffffffffffffffffffffffffffffffffff1673ffffffffffffffffffffffffffffffffffffffff168152602001908152602001600020600084815260200190815260200160002060008201518160000160006101000a81548173ffffffffffffffffffffffffffffffffffffffff021916908373ffffffffffffffffffffffffffffffffffffffff1602179055506020820151816001015560408201518160020160006101000a81548160ff021916908315150217905550905050818373ffffffffffffffffffffffffffffffffffffffff167f8eb7f103cc796712c31d344f1e05d5b095b445d2b7ac20e98c7cf75d9fc5a20783336040516104da9291906110d4565b60405180910390a3505050565b60035481565b6104f5610c3e565b6000600260008473ffffffffffffffffffffffffffffffffffffffff1673ffffffffffffffffffffffffffffffffffffffff168152602001908152602001600020600083815260200190815260200160002090508060020160009054906101000a900460ff1661059a576040517f08c379a000000000000000000000000000000000000000000000000000000000815260040161059190611149565b60405180910390fd5b80600101543410156105e1576040517f08c379a00000000000000000000000000000000000000000000000000000000081526004016105d8906111b5565b60405180910390fd5b600061271060035483600101546105f89190611204565b6106029190611275565b9050600081836001015461061691906112a6565b905060008360000160009054906101000a900473ffffffffffffffffffffffffffffffffffffffff1673ffffffffffffffffffffffffffffffffffffffff16826040516106629061130b565b60006040518083038185875af1925050503d806000811461069f576040519150601f19603f3d011682016040523d82523d6000602084013e6106a4565b606091505b50509050806106e8576040517f08c379a00000000000000000000000000000000000000000000000000000000081526004016106df9061136c565b60405180910390fd5b6000600460009054906101000a900473ffffffffffffffffffffffffffffffffffffffff1673ffffffffffffffffffffffffffffffffffffffff16846040516107309061130b565b60006040518083038185875af1925050503d806000811461076d576040519150601f19603f3d011682016040523d82523d6000602084013e610772565b606091505b50509050806107b6576040517f08c379a00000000000000000000000000000000000000000000000000000000081526004016107ad906113d8565b60405180910390fd5b8673ffffffffffffffffffffffffffffffffffffffff166323b872dd3033896040518463ffffffff1660e01b81526004016107f39392919061109d565b600060405180830381600087803b15801561080d57600080fd5b505af1158015610821573d6000803e3d6000fd5b5050505060008560020160006101000a81548160ff021916908315150217905550858773ffffffffffffffffffffffffffffffffffffffff167f44bd06404febb5a30803bcbe4429cdaf74ab54c2df93fd090fc19ab98fe3e540338860000160009054906101000a900473ffffffffffffffffffffffffffffffffffffffff1689600101546040516108b59392919061109d565b60405180910390a350505050506108ca610c8d565b5050565b6108d6610bc0565b6108e06000610c96565b565b60008060009054906101000a900473ffffffffffffffffffffffffffffffffffffffff16905090565b6000600260008473ffffffffffffffffffffffffffffffffffffffff1673ffffffffffffffffffffffffffffffffffffffff168152602001908152602001600020600083815260200190815260200160002090503373ffffffffffffffffffffffffffffffffffffffff168160000160009054906101000a900473ffffffffffffffffffffffffffffffffffffffff1673ffffffffffffffffffffffffffffffffffffffff16146109f1576040517f08c379a00000000000000000000000000000000000000000000000000000000081526004016109e890611444565b60405180910390fd5b8060020160009054906101000a900460ff16610a42576040517f08c379a0000000000000000000000000000000000000000000000000000000008152600401610a3990611149565b60405180910390fd5b8273ffffffffffffffffffffffffffffffffffffffff166323b872dd3033856040518463ffffffff1660e01b8152600401610a7f9392919061109d565b600060405180830381600087803b158015610a9957600080fd5b505af1158015610aad573d6000803e3d6000fd5b5050505060008160020160006101000a81548160ff021916908315150217905550818373ffffffffffffffffffffffffffffffffffffffff167fea2df1906aa0678464bc2a22d5ed1eefedfa34eef24e9db4a75034297414befe60405160405180910390a3505050565b600460009054906101000a900473ffffffffffffffffffffffffffffffffffffffff1681565b610b45610bc0565b600073ffffffffffffffffffffffffffffffffffffffff168173ffffffffffffffffffffffffffffffffffffffff1603610bb4576040517f08c379a0000000000000000000000000000000000000000000000000000000008152600401610bab906114d6565b60405180910390fd5b610bbd81610c96565b50565b610bc8610d5a565b73ffffffffffffffffffffffffffffffffffffffff16610be66108e2565b73ffffffffffffffffffffffffffffffffffffffff1614610c3c576040517f08c379a0000000000000000000000000000000000000000000000000000000008152600401610c3390611542565b60405180910390fd5b565b600260015403610c83576040517f08c379a0000000000000000000000000000000000000000000000000000000008152600401610c7a906115ae565b60405180910390fd5b6002600181905550565b60018081905550565b60008060009054906101000a900473ffffffffffffffffffffffffffffffffffffffff169050816000806101000a81548173ffffffffffffffffffffffffffffffffffffffff021916908373ffffffffffffffffffffffffffffffffffffffff1602179055508173ffffffffffffffffffffffffffffffffffffffff168173ffffffffffffffffffffffffffffffffffffffff167f8be0079c531659141344cd1fd0a4f28419497f9722a3daafe3b4186f6b6457e060405160405180910390a35050565b600033905090565b600080fd5b600073ffffffffffffffffffffffffffffffffffffffff82169050919050565b6000610d9282610d67565b9050919050565b610da281610d87565b8114610dad57600080fd5b50565b600081359050610dbf81610d99565b92915050565b6000819050919050565b610dd881610dc5565b8114610de357600080fd5b50565b600081359050610df581610dcf565b92915050565b60008060408385031215610e1257610e11610d62565b5b6000610e2085828601610db0565b9250506020610e3185828601610de6565b9150509250929050565b610e4481610d87565b82525050565b610e5381610dc5565b82525050565b60008115159050919050565b610e6e81610e59565b82525050565b6000606082019050610e896000830186610e3b565b610e966020830185610e4a565b610ea36040830184610e65565b949350505050565b600060208284031215610ec157610ec0610d62565b5b6000610ecf84828501610de6565b91505092915050565b600080600060608486031215610ef157610ef0610d62565b5b6000610eff86828701610db0565b9350506020610f1086828701610de6565b9250506040610f2186828701610de6565b9150509250925092565b6000602082019050610f406000830184610e4a565b92915050565b6000602082019050610f5b6000830184610e3b565b92915050565b600060208284031215610f7757610f76610d62565b5b6000610f8584828501610db0565b91505092915050565b600082825260208201905092915050565b7f466565206d757374206265206c657373207468616e206f7220657175616c207460008201527f6f20313030250000000000000000000000000000000000000000000000000000602082015250565b6000610ffb602683610f8e565b915061100682610f9f565b604082019050919050565b6000602082019050818103600083015261102a81610fee565b9050919050565b7f5072696365206d7573742062652067726561746572207468616e203000000000600082015250565b6000611067601c83610f8e565b915061107282611031565b602082019050919050565b600060208201905081810360008301526110968161105a565b9050919050565b60006060820190506110b26000830186610e3b565b6110bf6020830185610e3b565b6110cc6040830184610e4a565b949350505050565b60006040820190506110e96000830185610e4a565b6110f66020830184610e3b565b9392505050565b7f4c697374696e67206973206e6f74206163746976650000000000000000000000600082015250565b6000611133601583610f8e565b915061113e826110fd565b602082019050919050565b6000602082019050818103600083015261116281611126565b9050919050565b7f496e73756666696369656e74207061796d656e74000000000000000000000000600082015250565b600061119f601483610f8e565b91506111aa82611169565b602082019050919050565b600060208201905081810360008301526111ce81611192565b9050919050565b7f4e487b7100000000000000000000000000000000000000000000000000000000600052601160045260246000fd5b600061120f82610dc5565b915061121a83610dc5565b925082820261122881610dc5565b9150828204841483151761123f5761123e6111d5565b5b5092915050565b7f4e487b7100000000000000000000000000000000000000000000000000000000600052601260045260246000fd5b600061128082610dc5565b915061128b83610dc5565b92508261129b5761129a611246565b5b828204905092915050565b60006112b182610dc5565b91506112bc83610dc5565b92508282039050818111156112d4576112d36111d5565b5b92915050565b600081905092915050565b50565b60006112f56000836112da565b9150611300826112e5565b600082019050919050565b6000611316826112e8565b9150819050919050565b7f4661696c656420746f2073656e64204574686572000000000000000000000000600082015250565b6000611356601483610f8e565b915061136182611320565b602082019050919050565b6000602082019050818103600083015261138581611349565b9050919050565b7f4661696c656420746f2073656e64206665650000000000000000000000000000600082015250565b60006113c2601283610f8e565b91506113cd8261138c565b602082019050919050565b600060208201905081810360008301526113f1816113b5565b9050919050565b7f4f6e6c792073656c6c65722063616e2063616e63656c00000000000000000000600082015250565b600061142e601683610f8e565b9150611439826113f8565b602082019050919050565b6000602082019050818103600083015261145d81611421565b9050919050565b7f4f776e61626c653a206e6577206f776e657220697320746865207a65726f206160008201527f6464726573730000000000000000000000000000000000000000000000000000602082015250565b60006114c0602683610f8e565b91506114cb82611464565b604082019050919050565b600060208201905081810360008301526114ef816114b3565b9050919050565b7f4f776e61626c653a2063616c6c6572206973206e6f7420746865206f776e6572600082015250565b600061152c602083610f8e565b9150611537826114f6565b602082019050919050565b6000602082019050818103600083015261155b8161151f565b9050919050565b7f5265656e7472616e637947756172643a207265656e7472616e742063616c6c00600082015250565b6000611598601f83610f8e565b91506115a382611562565b602082019050919050565b600060208201905081810360008301526115c78161158b565b905091905056fea264697066735822122044c9c809cb757a0bd8a17ca1a44b3aee0e67203557dd99ef1b351a521650438164736f6c634300081a0033",
  "linkReferences": {},
  "deployedLinkReferences": {}
}