{
  "_format": "hh-sol-artifact-1",
  "contractName": "LiquidityPoolFactory",
  "sourceName": "contracts/LiquidityPoolFactory.sol",
  "abi": [
    {
      "inputs": [
        {
          "internalType": "address",
          "name": "initialOwner",
          "type": "address"
        }
      ],
      "stateMutability": "nonpayable",
      "type": "constructor"
    },
    {
      "anonymous": false,
      "inputs": [
        {
          "indexed": false,
          "internalType": "uint256",
          "name": "poolId",
          "type": "uint256"
        },
        {
          "indexed": false,
          "internalType": "address",
          "name": "user",
          "type": "address"
        },
        {
          "indexed": false,
          "internalType": "uint256",
          "name": "amount",
          "type": "uint256"
        }
      ],
      "name": "LiquidityAdded",
      "type": "event"
    },
    {
      "anonymous": false,
      "inputs": [
        {
          "indexed": true,
          "internalType": "address",
          "name": "previousOwner",
          "type": "address"
        },
        {
          "indexed": true,
          "internalType": "address",
          "name": "newOwner",
          "type": "address"
        }
      ],
      "name": "OwnershipTransferred",
      "type": "event"
    },
    {
      "anonymous": false,
      "inputs": [
        {
          "indexed": false,
          "internalType": "uint256",
          "name": "poolId",
          "type": "uint256"
        },
        {
          "indexed": false,
          "internalType": "address",
          "name": "token",
          "type": "address"
        },
        {
          "indexed": false,
          "internalType": "address",
          "name": "nft",
          "type": "address"
        }
      ],
      "name": "PoolCreated",
      "type": "event"
    },
    {
      "anonymous": false,
      "inputs": [
        {
          "indexed": false,
          "internalType": "uint256",
          "name": "poolId",
          "type": "uint256"
        },
        {
          "indexed": false,
          "internalType": "uint256",
          "name": "proposalId",
          "type": "uint256"
        },
        {
          "indexed": false,
          "internalType": "string",
          "name": "description",
          "type": "string"
        }
      ],
      "name": "ProposalCreated",
      "type": "event"
    },
    {
      "anonymous": false,
      "inputs": [
        {
          "indexed": false,
          "internalType": "uint256",
          "name": "poolId",
          "type": "uint256"
        },
        {
          "indexed": false,
          "internalType": "uint256",
          "name": "proposalId",
          "type": "uint256"
        },
        {
          "indexed": false,
          "internalType": "bool",
          "name": "passed",
          "type": "bool"
        }
      ],
      "name": "ProposalExecuted",
      "type": "event"
    },
    {
      "anonymous": false,
      "inputs": [
        {
          "indexed": false,
          "internalType": "uint256",
          "name": "poolId",
          "type": "uint256"
        },
        {
          "indexed": false,
          "internalType": "uint256",
          "name": "proposalId",
          "type": "uint256"
        },
        {
          "indexed": false,
          "internalType": "bool",
          "name": "support",
          "type": "bool"
        },
        {
          "indexed": false,
          "internalType": "address",
          "name": "voter",
          "type": "address"
        }
      ],
      "name": "Voted",
      "type": "event"
    },
    {
      "inputs": [
        {
          "internalType": "uint256",
          "name": "poolId",
          "type": "uint256"
        },
        {
          "internalType": "uint256",
          "name": "amount",
          "type": "uint256"
        }
      ],
      "name": "addLiquidity",
      "outputs": [],
      "stateMutability": "nonpayable",
      "type": "function"
    },
    {
      "inputs": [
        {
          "internalType": "address",
          "name": "_token",
          "type": "address"
        },
        {
          "internalType": "address",
          "name": "_nft",
          "type": "address"
        }
      ],
      "name": "createLiquidityPool",
      "outputs": [
        {
          "internalType": "uint256",
          "name": "poolId",
          "type": "uint256"
        }
      ],
      "stateMutability": "nonpayable",
      "type": "function"
    },
    {
      "inputs": [
        {
          "internalType": "uint256",
          "name": "poolId",
          "type": "uint256"
        },
        {
          "internalType": "string",
          "name": "description",
          "type": "string"
        },
        {
          "internalType": "uint256",
          "name": "votingDuration",
          "type": "uint256"
        }
      ],
      "name": "createProposal",
      "outputs": [],
      "stateMutability": "nonpayable",
      "type": "function"
    },
    {
      "inputs": [
        {
          "internalType": "uint256",
          "name": "poolId",
          "type": "uint256"
        },
        {
          "internalType": "uint256",
          "name": "proposalId",
          "type": "uint256"
        }
      ],
      "name": "executeProposal",
      "outputs": [],
      "stateMutability": "nonpayable",
      "type": "function"
    },
    {
      "inputs": [],
      "name": "getAllActivePools",
      "outputs": [
        {
          "internalType": "uint256[]",
          "name": "",
          "type": "uint256[]"
        }
      ],
      "stateMutability": "view",
      "type": "function"
    },
    {
      "inputs": [
        {
          "internalType": "uint256",
          "name": "poolId",
          "type": "uint256"
        }
      ],
      "name": "getPoolDetails",
      "outputs": [
        {
          "internalType": "address",
          "name": "token",
          "type": "address"
        },
        {
          "internalType": "address",
          "name": "nft",
          "type": "address"
        },
        {
          "internalType": "uint256",
          "name": "totalLiquidity",
          "type": "uint256"
        },
        {
          "internalType": "uint256",
          "name": "totalProposals",
          "type": "uint256"
        },
        {
          "internalType": "bool",
          "name": "isActive",
          "type": "bool"
        }
      ],
      "stateMutability": "view",
      "type": "function"
    },
    {
      "inputs": [
        {
          "internalType": "uint256",
          "name": "poolId",
          "type": "uint256"
        },
        {
          "internalType": "uint256",
          "name": "proposalId",
          "type": "uint256"
        }
      ],
      "name": "getProposalDetails",
      "outputs": [
        {
          "internalType": "string",
          "name": "description",
          "type": "string"
        },
        {
          "internalType": "uint256",
          "name": "endTime",
          "type": "uint256"
        },
        {
          "internalType": "uint256",
          "name": "votesFor",
          "type": "uint256"
        },
        {
          "internalType": "uint256",
          "name": "votesAgainst",
          "type": "uint256"
        },
        {
          "internalType": "bool",
          "name": "executed",
          "type": "bool"
        }
      ],
      "stateMutability": "view",
      "type": "function"
    },
    {
      "inputs": [],
      "name": "owner",
      "outputs": [
        {
          "internalType": "address",
          "name": "",
          "type": "address"
        }
      ],
      "stateMutability": "view",
      "type": "function"
    },
    {
      "inputs": [
        {
          "internalType": "uint256",
          "name": "",
          "type": "uint256"
        }
      ],
      "name": "pools",
      "outputs": [
        {
          "internalType": "address",
          "name": "token",
          "type": "address"
        },
        {
          "internalType": "address",
          "name": "nft",
          "type": "address"
        },
        {
          "internalType": "uint256",
          "name": "totalLiquidity",
          "type": "uint256"
        },
        {
          "internalType": "bool",
          "name": "active",
          "type": "bool"
        }
      ],
      "stateMutability": "view",
      "type": "function"
    },
    {
      "inputs": [],
      "name": "renounceOwnership",
      "outputs": [],
      "stateMutability": "nonpayable",
      "type": "function"
    },
    {
      "inputs": [
        {
          "internalType": "address",
          "name": "newOwner",
          "type": "address"
        }
      ],
      "name": "transferOwnership",
      "outputs": [],
      "stateMutability": "nonpayable",
      "type": "function"
    },
    {
      "inputs": [
        {
          "internalType": "uint256",
          "name": "poolId",
          "type": "uint256"
        },
        {
          "internalType": "uint256",
          "name": "proposalId",
          "type": "uint256"
        },
        {
          "internalType": "bool",
          "name": "support",
          "type": "bool"
        }
      ],
      "name": "vote",
      "outputs": [],
      "stateMutability": "nonpayable",
      "type": "function"
    }
  ],
  "bytecode": "0x608060405234801561001057600080fd5b50604051612cfc380380612cfc833981810160405281019061003291906102d4565b61004e61004361006360201b60201c565b61006b60201b60201c565b61005d8161012f60201b60201c565b50610410565b600033905090565b60008060009054906101000a900473ffffffffffffffffffffffffffffffffffffffff169050816000806101000a81548173ffffffffffffffffffffffffffffffffffffffff021916908373ffffffffffffffffffffffffffffffffffffffff1602179055508173ffffffffffffffffffffffffffffffffffffffff168173ffffffffffffffffffffffffffffffffffffffff167f8be0079c531659141344cd1fd0a4f28419497f9722a3daafe3b4186f6b6457e060405160405180910390a35050565b61013d6101be60201b60201c565b600073ffffffffffffffffffffffffffffffffffffffff168173ffffffffffffffffffffffffffffffffffffffff16036101ac576040517f08c379a00000000000000000000000000000000000000000000000000000000081526004016101a390610384565b60405180910390fd5b6101bb8161006b60201b60201c565b50565b6101cc61006360201b60201c565b73ffffffffffffffffffffffffffffffffffffffff166101f061024860201b60201c565b73ffffffffffffffffffffffffffffffffffffffff1614610246576040517f08c379a000000000000000000000000000000000000000000000000000000000815260040161023d906103f0565b60405180910390fd5b565b60008060009054906101000a900473ffffffffffffffffffffffffffffffffffffffff16905090565b600080fd5b600073ffffffffffffffffffffffffffffffffffffffff82169050919050565b60006102a182610276565b9050919050565b6102b181610296565b81146102bc57600080fd5b50565b6000815190506102ce816102a8565b92915050565b6000602082840312156102ea576102e9610271565b5b60006102f8848285016102bf565b91505092915050565b600082825260208201905092915050565b7f4f776e61626c653a206e6577206f776e657220697320746865207a65726f206160008201527f6464726573730000000000000000000000000000000000000000000000000000602082015250565b600061036e602683610301565b915061037982610312565b604082019050919050565b6000602082019050818103600083015261039d81610361565b9050919050565b7f4f776e61626c653a2063616c6c6572206973206e6f7420746865206f776e6572600082015250565b60006103da602083610301565b91506103e5826103a4565b602082019050919050565b60006020820190508181036000830152610409816103cd565b9050919050565b6128dd8061041f6000396000f3fe608060405234801561001057600080fd5b50600436106100b45760003560e01c80639cd441da116100715780639cd441da1461017d578063a891bfa914610199578063ac4afa38146101b5578063b8764c39146101e8578063d5cd7d201461021c578063f2fde38b1461023a576100b4565b80631ab76712146100b95780632384d3d0146100d55780636a18ff7a14610105578063715018a6146101215780638da5cb5b1461012b57806397decb3f14610149575b600080fd5b6100d360048036038101906100ce9190611621565b610256565b005b6100ef60048036038101906100ea91906116bf565b61060d565b6040516100fc919061170e565b60405180910390f35b61011f600480360381019061011a9190611761565b6107dc565b005b610129610ab4565b005b610133610ac8565b60405161014091906117c3565b60405180910390f35b610163600480360381019061015e9190611621565b610af1565b60405161017495949392919061187d565b60405180910390f35b61019760048036038101906101929190611621565b610c93565b005b6101b360048036038101906101ae919061193c565b610f73565b005b6101cf60048036038101906101ca91906119b0565b61115e565b6040516101df94939291906119dd565b60405180910390f35b61020260048036038101906101fd91906119b0565b6111db565b604051610213959493929190611a22565b60405180910390f35b6102246112c2565b6040516102319190611b33565b60405180910390f35b610254600480360381019061024f9190611b55565b6113f0565b005b6102606002611473565b82106102a1576040517f08c379a000000000000000000000000000000000000000000000000000000000815260040161029890611bce565b60405180910390fd5b600060016000848152602001908152602001600020905080600401805490508210610301576040517f08c379a00000000000000000000000000000000000000000000000000000000081526004016102f890611c3a565b60405180910390fd5b600081600401838154811061031957610318611c5a565b5b906000526020600020906007020190508060050160009054906101000a900460ff161561037b576040517f08c379a000000000000000000000000000000000000000000000000000000000815260040161037290611cd5565b60405180910390fd5b80600401544210156103c2576040517f08c379a00000000000000000000000000000000000000000000000000000000081526004016103b990611d41565b60405180910390fd5b60008160030154826002015411905060018260050160006101000a81548160ff02191690831515021790555080156105cb5760008360010160009054906101000a900473ffffffffffffffffffffffffffffffffffffffff1673ffffffffffffffffffffffffffffffffffffffff16638da5cb5b6040518163ffffffff1660e01b8152600401602060405180830381865afa158015610465573d6000803e3d6000fd5b505050506040513d601f19601f820116820180604052508101906104899190611d76565b9050600084600201549050600081116104d7576040517f08c379a00000000000000000000000000000000000000000000000000000000081526004016104ce90611def565b60405180910390fd5b60008560000160009054906101000a900473ffffffffffffffffffffffffffffffffffffffff1673ffffffffffffffffffffffffffffffffffffffff1663a9059cbb84846040518363ffffffff1660e01b8152600401610538929190611e0f565b6020604051808303816000875af1158015610557573d6000803e3d6000fd5b505050506040513d601f19601f8201168201806040525081019061057b9190611e4d565b9050806105bd576040517f08c379a00000000000000000000000000000000000000000000000000000000081526004016105b490611eec565b60405180910390fd5b600086600201819055505050505b7f675c71fb6cbf880ec8fed9c345ef0bb3019cc44b99708edb402b85a7535d7d198585836040516105fe93929190611f0c565b60405180910390a15050505050565b6000808273ffffffffffffffffffffffffffffffffffffffff166370a08231336040518263ffffffff1660e01b815260040161064991906117c3565b602060405180830381865afa158015610666573d6000803e3d6000fd5b505050506040513d601f19601f8201168201806040525081019061068a9190611f58565b116106ca576040517f08c379a00000000000000000000000000000000000000000000000000000000081526004016106c190611ff7565b60405180910390fd5b6106d46002611473565b90506106e06002611481565b6000600160008381526020019081526020016000209050838160000160006101000a81548173ffffffffffffffffffffffffffffffffffffffff021916908373ffffffffffffffffffffffffffffffffffffffff160217905550828160010160006101000a81548173ffffffffffffffffffffffffffffffffffffffff021916908373ffffffffffffffffffffffffffffffffffffffff16021790555060018160050160006101000a81548160ff0219169083151502179055507f1a7a1d16c3ec9167827a7be3534be26288720a0bdd3de56d290f415db3d3e0a68285856040516107cd93929190612017565b60405180910390a15092915050565b6107e66002611473565b8310610827576040517f08c379a000000000000000000000000000000000000000000000000000000000815260040161081e90611bce565b60405180910390fd5b600060016000858152602001908152602001600020905080600401805490508310610887576040517f08c379a000000000000000000000000000000000000000000000000000000000815260040161087e90611c3a565b60405180910390fd5b600081600401848154811061089f5761089e611c5a565b5b906000526020600020906007020190508060050160009054906101000a900460ff1615610901576040517f08c379a00000000000000000000000000000000000000000000000000000000081526004016108f890611cd5565b60405180910390fd5b8060060160003373ffffffffffffffffffffffffffffffffffffffff1673ffffffffffffffffffffffffffffffffffffffff16815260200190815260200160002060009054906101000a900460ff1615610990576040517f08c379a00000000000000000000000000000000000000000000000000000000081526004016109879061209a565b60405180910390fd5b806004015442106109d6576040517f08c379a00000000000000000000000000000000000000000000000000000000081526004016109cd90612106565b60405180910390fd5b82156109fb578060020160008154809291906109f190612155565b9190505550610a16565b806003016000815480929190610a1090612155565b91905055505b60018160060160003373ffffffffffffffffffffffffffffffffffffffff1673ffffffffffffffffffffffffffffffffffffffff16815260200190815260200160002060006101000a81548160ff0219169083151502179055507f07678e29746e6a183bd25134bc8ca37ca2287f74ac964b896f86e16d8d4ba78785858533604051610aa5949392919061219d565b60405180910390a15050505050565b610abc611497565b610ac66000611515565b565b60008060009054906101000a900473ffffffffffffffffffffffffffffffffffffffff16905090565b6060600080600080610b036002611473565b8710610b44576040517f08c379a0000000000000000000000000000000000000000000000000000000008152600401610b3b90611bce565b60405180910390fd5b600060016000898152602001908152602001600020905080600401805490508710610ba4576040517f08c379a0000000000000000000000000000000000000000000000000000000008152600401610b9b90611c3a565b60405180910390fd5b6000816004018881548110610bbc57610bbb611c5a565b5b90600052602060002090600702019050806001018160040154826002015483600301548460050160009054906101000a900460ff16848054610bfd90612211565b80601f0160208091040260200160405190810160405280929190818152602001828054610c2990612211565b8015610c765780601f10610c4b57610100808354040283529160200191610c76565b820191906000526020600020905b815481529060010190602001808311610c5957829003601f168201915b505050505094509650965096509650965050509295509295909350565b610c9d6002611473565b8210610cde576040517f08c379a0000000000000000000000000000000000000000000000000000000008152600401610cd590611bce565b60405180910390fd5b6000600160008481526020019081526020016000209050818160000160009054906101000a900473ffffffffffffffffffffffffffffffffffffffff1673ffffffffffffffffffffffffffffffffffffffff1663dd62ed3e33306040518363ffffffff1660e01b8152600401610d55929190612242565b602060405180830381865afa158015610d72573d6000803e3d6000fd5b505050506040513d601f19601f82011682018060405250810190610d969190611f58565b1015610dd7576040517f08c379a0000000000000000000000000000000000000000000000000000000008152600401610dce906122b7565b60405180910390fd5b60008160000160009054906101000a900473ffffffffffffffffffffffffffffffffffffffff1673ffffffffffffffffffffffffffffffffffffffff166323b872dd3330866040518463ffffffff1660e01b8152600401610e3a939291906122d7565b6020604051808303816000875af1158015610e59573d6000803e3d6000fd5b505050506040513d601f19601f82011682018060405250810190610e7d9190611e4d565b905080610ebf576040517f08c379a0000000000000000000000000000000000000000000000000000000008152600401610eb69061235a565b60405180910390fd5b828260030160003373ffffffffffffffffffffffffffffffffffffffff1673ffffffffffffffffffffffffffffffffffffffff1681526020019081526020016000206000828254610f10919061237a565b9250508190555082826002016000828254610f2b919061237a565b925050819055507fc733c2813826d31c105dbff518b08258e9e7aeb3eb1c7c7f642d77696faf501d843385604051610f65939291906123ae565b60405180910390a150505050565b610f7d6002611473565b8410610fbe576040517f08c379a0000000000000000000000000000000000000000000000000000000008152600401610fb590611bce565b60405180910390fd5b600060016000868152602001908152602001600020905060008160010160009054906101000a900473ffffffffffffffffffffffffffffffffffffffff1673ffffffffffffffffffffffffffffffffffffffff166370a08231336040518263ffffffff1660e01b815260040161103491906117c3565b602060405180830381865afa158015611051573d6000803e3d6000fd5b505050506040513d601f19601f820116820180604052508101906110759190611f58565b116110b5576040517f08c379a00000000000000000000000000000000000000000000000000000000081526004016110ac90612457565b60405180910390fd5b6000816004018054905090506000826004016001816001815401808255809150500390600052602060002090600702019050818160000181905550858582600101918261110392919061265d565b508342611110919061237a565b81600401819055507f7aade497c2cd4241d757f694370d0e4a250bfa251b3ab287406b2ab58d3fdad68783888860405161114d9493929190612769565b60405180910390a150505050505050565b60016020528060005260406000206000915090508060000160009054906101000a900473ffffffffffffffffffffffffffffffffffffffff16908060010160009054906101000a900473ffffffffffffffffffffffffffffffffffffffff16908060020154908060050160009054906101000a900460ff16905084565b60008060008060006111ed6002611473565b861061122e576040517f08c379a000000000000000000000000000000000000000000000000000000000815260040161122590611bce565b60405180910390fd5b60006001600088815260200190815260200160002090508060000160009054906101000a900473ffffffffffffffffffffffffffffffffffffffff168160010160009054906101000a900473ffffffffffffffffffffffffffffffffffffffff16826002015483600401805490508460050160009054906101000a900460ff16955095509550955095505091939590929450565b60606000805b6112d26002611473565b81101561131e576001600082815260200190815260200160002060050160009054906101000a900460ff161561131157818061130d90612155565b9250505b80806001019150506112c8565b5060008167ffffffffffffffff81111561133b5761133a612482565b5b6040519080825280602002602001820160405280156113695781602001602082028036833780820191505090505b5090506000805b61137a6002611473565b8110156113e6576001600082815260200190815260200160002060050160009054906101000a900460ff16156113d957808383815181106113be576113bd611c5a565b5b60200260200101818152505081806113d590612155565b9250505b8080600101915050611370565b5081935050505090565b6113f8611497565b600073ffffffffffffffffffffffffffffffffffffffff168173ffffffffffffffffffffffffffffffffffffffff1603611467576040517f08c379a000000000000000000000000000000000000000000000000000000000815260040161145e9061281b565b60405180910390fd5b61147081611515565b50565b600081600001549050919050565b6001816000016000828254019250508190555050565b61149f6115d9565b73ffffffffffffffffffffffffffffffffffffffff166114bd610ac8565b73ffffffffffffffffffffffffffffffffffffffff1614611513576040517f08c379a000000000000000000000000000000000000000000000000000000000815260040161150a90612887565b60405180910390fd5b565b60008060009054906101000a900473ffffffffffffffffffffffffffffffffffffffff169050816000806101000a81548173ffffffffffffffffffffffffffffffffffffffff021916908373ffffffffffffffffffffffffffffffffffffffff1602179055508173ffffffffffffffffffffffffffffffffffffffff168173ffffffffffffffffffffffffffffffffffffffff167f8be0079c531659141344cd1fd0a4f28419497f9722a3daafe3b4186f6b6457e060405160405180910390a35050565b600033905090565b600080fd5b600080fd5b6000819050919050565b6115fe816115eb565b811461160957600080fd5b50565b60008135905061161b816115f5565b92915050565b60008060408385031215611638576116376115e1565b5b60006116468582860161160c565b92505060206116578582860161160c565b9150509250929050565b600073ffffffffffffffffffffffffffffffffffffffff82169050919050565b600061168c82611661565b9050919050565b61169c81611681565b81146116a757600080fd5b50565b6000813590506116b981611693565b92915050565b600080604083850312156116d6576116d56115e1565b5b60006116e4858286016116aa565b92505060206116f5858286016116aa565b9150509250929050565b611708816115eb565b82525050565b600060208201905061172360008301846116ff565b92915050565b60008115159050919050565b61173e81611729565b811461174957600080fd5b50565b60008135905061175b81611735565b92915050565b60008060006060848603121561177a576117796115e1565b5b60006117888682870161160c565b93505060206117998682870161160c565b92505060406117aa8682870161174c565b9150509250925092565b6117bd81611681565b82525050565b60006020820190506117d860008301846117b4565b92915050565b600081519050919050565b600082825260208201905092915050565b60005b838110156118185780820151818401526020810190506117fd565b60008484015250505050565b6000601f19601f8301169050919050565b6000611840826117de565b61184a81856117e9565b935061185a8185602086016117fa565b61186381611824565b840191505092915050565b61187781611729565b82525050565b600060a08201905081810360008301526118978188611835565b90506118a660208301876116ff565b6118b360408301866116ff565b6118c060608301856116ff565b6118cd608083018461186e565b9695505050505050565b600080fd5b600080fd5b600080fd5b60008083601f8401126118fc576118fb6118d7565b5b8235905067ffffffffffffffff811115611919576119186118dc565b5b602083019150836001820283011115611935576119346118e1565b5b9250929050565b60008060008060608587031215611956576119556115e1565b5b60006119648782880161160c565b945050602085013567ffffffffffffffff811115611985576119846115e6565b5b611991878288016118e6565b935093505060406119a48782880161160c565b91505092959194509250565b6000602082840312156119c6576119c56115e1565b5b60006119d48482850161160c565b91505092915050565b60006080820190506119f260008301876117b4565b6119ff60208301866117b4565b611a0c60408301856116ff565b611a19606083018461186e565b95945050505050565b600060a082019050611a3760008301886117b4565b611a4460208301876117b4565b611a5160408301866116ff565b611a5e60608301856116ff565b611a6b608083018461186e565b9695505050505050565b600081519050919050565b600082825260208201905092915050565b6000819050602082019050919050565b611aaa816115eb565b82525050565b6000611abc8383611aa1565b60208301905092915050565b6000602082019050919050565b6000611ae082611a75565b611aea8185611a80565b9350611af583611a91565b8060005b83811015611b26578151611b0d8882611ab0565b9750611b1883611ac8565b925050600181019050611af9565b5085935050505092915050565b60006020820190508181036000830152611b4d8184611ad5565b905092915050565b600060208284031215611b6b57611b6a6115e1565b5b6000611b79848285016116aa565b91505092915050565b7f506f6f6c20646f6573206e6f7420657869737400000000000000000000000000600082015250565b6000611bb86013836117e9565b9150611bc382611b82565b602082019050919050565b60006020820190508181036000830152611be781611bab565b9050919050565b7f50726f706f73616c20646f6573206e6f74206578697374000000000000000000600082015250565b6000611c246017836117e9565b9150611c2f82611bee565b602082019050919050565b60006020820190508181036000830152611c5381611c17565b9050919050565b7f4e487b7100000000000000000000000000000000000000000000000000000000600052603260045260246000fd5b7f50726f706f73616c20616c726561647920657865637574656400000000000000600082015250565b6000611cbf6019836117e9565b9150611cca82611c89565b602082019050919050565b60006020820190508181036000830152611cee81611cb2565b9050919050565b7f566f74696e67207374696c6c206f6e676f696e67000000000000000000000000600082015250565b6000611d2b6014836117e9565b9150611d3682611cf5565b602082019050919050565b60006020820190508181036000830152611d5a81611d1e565b9050919050565b600081519050611d7081611693565b92915050565b600060208284031215611d8c57611d8b6115e1565b5b6000611d9a84828501611d61565b91505092915050565b7f4e6f2066756e647320746f207472616e73666572000000000000000000000000600082015250565b6000611dd96014836117e9565b9150611de482611da3565b602082019050919050565b60006020820190508181036000830152611e0881611dcc565b9050919050565b6000604082019050611e2460008301856117b4565b611e3160208301846116ff565b9392505050565b600081519050611e4781611735565b92915050565b600060208284031215611e6357611e626115e1565b5b6000611e7184828501611e38565b91505092915050565b7f5472616e7366657220746f204e465420636f6e7472616374206f776e6572206660008201527f61696c6564000000000000000000000000000000000000000000000000000000602082015250565b6000611ed66025836117e9565b9150611ee182611e7a565b604082019050919050565b60006020820190508181036000830152611f0581611ec9565b9050919050565b6000606082019050611f2160008301866116ff565b611f2e60208301856116ff565b611f3b604083018461186e565b949350505050565b600081519050611f52816115f5565b92915050565b600060208284031215611f6e57611f6d6115e1565b5b6000611f7c84828501611f43565b91505092915050565b7f596f75206d757374206f776e20616e204e465420746f2063726561746520612060008201527f706f6f6c00000000000000000000000000000000000000000000000000000000602082015250565b6000611fe16024836117e9565b9150611fec82611f85565b604082019050919050565b6000602082019050818103600083015261201081611fd4565b9050919050565b600060608201905061202c60008301866116ff565b61203960208301856117b4565b61204660408301846117b4565b949350505050565b7f416c726561647920766f74656400000000000000000000000000000000000000600082015250565b6000612084600d836117e9565b915061208f8261204e565b602082019050919050565b600060208201905081810360008301526120b381612077565b9050919050565b7f566f74696e6720706572696f6420656e64656400000000000000000000000000600082015250565b60006120f06013836117e9565b91506120fb826120ba565b602082019050919050565b6000602082019050818103600083015261211f816120e3565b9050919050565b7f4e487b7100000000000000000000000000000000000000000000000000000000600052601160045260246000fd5b6000612160826115eb565b91507fffffffffffffffffffffffffffffffffffffffffffffffffffffffffffffffff820361219257612191612126565b5b600182019050919050565b60006080820190506121b260008301876116ff565b6121bf60208301866116ff565b6121cc604083018561186e565b6121d960608301846117b4565b95945050505050565b7f4e487b7100000000000000000000000000000000000000000000000000000000600052602260045260246000fd5b6000600282049050600182168061222957607f821691505b60208210810361223c5761223b6121e2565b5b50919050565b600060408201905061225760008301856117b4565b61226460208301846117b4565b9392505050565b7f496e73756666696369656e7420746f6b656e20616c6c6f77616e636500000000600082015250565b60006122a1601c836117e9565b91506122ac8261226b565b602082019050919050565b600060208201905081810360008301526122d081612294565b9050919050565b60006060820190506122ec60008301866117b4565b6122f960208301856117b4565b61230660408301846116ff565b949350505050565b7f546f6b656e207472616e73666572206661696c65640000000000000000000000600082015250565b60006123446015836117e9565b915061234f8261230e565b602082019050919050565b6000602082019050818103600083015261237381612337565b9050919050565b6000612385826115eb565b9150612390836115eb565b92508282019050808211156123a8576123a7612126565b5b92915050565b60006060820190506123c360008301866116ff565b6123d060208301856117b4565b6123dd60408301846116ff565b949350505050565b7f596f75206d757374206f776e20616e204e465420746f2063726561746520612060008201527f70726f706f73616c000000000000000000000000000000000000000000000000602082015250565b60006124416028836117e9565b915061244c826123e5565b604082019050919050565b6000602082019050818103600083015261247081612434565b9050919050565b600082905092915050565b7f4e487b7100000000000000000000000000000000000000000000000000000000600052604160045260246000fd5b60008190508160005260206000209050919050565b60006020601f8301049050919050565b600082821b905092915050565b6000600883026125137fffffffffffffffffffffffffffffffffffffffffffffffffffffffffffffffff826124d6565b61251d86836124d6565b95508019841693508086168417925050509392505050565b6000819050919050565b600061255a612555612550846115eb565b612535565b6115eb565b9050919050565b6000819050919050565b6125748361253f565b61258861258082612561565b8484546124e3565b825550505050565b600090565b61259d612590565b6125a881848461256b565b505050565b5b818110156125cc576125c1600082612595565b6001810190506125ae565b5050565b601f821115612611576125e2816124b1565b6125eb846124c6565b810160208510156125fa578190505b61260e612606856124c6565b8301826125ad565b50505b505050565b600082821c905092915050565b600061263460001984600802612616565b1980831691505092915050565b600061264d8383612623565b9150826002028217905092915050565b6126678383612477565b67ffffffffffffffff8111156126805761267f612482565b5b61268a8254612211565b6126958282856125d0565b6000601f8311600181146126c457600084156126b2578287013590505b6126bc8582612641565b865550612724565b601f1984166126d2866124b1565b60005b828110156126fa578489013582556001820191506020850194506020810190506126d5565b868310156127175784890135612713601f891682612623565b8355505b6001600288020188555050505b50505050505050565b82818337600083830152505050565b600061274883856117e9565b935061275583858461272d565b61275e83611824565b840190509392505050565b600060608201905061277e60008301876116ff565b61278b60208301866116ff565b818103604083015261279e81848661273c565b905095945050505050565b7f4f776e61626c653a206e6577206f776e657220697320746865207a65726f206160008201527f6464726573730000000000000000000000000000000000000000000000000000602082015250565b60006128056026836117e9565b9150612810826127a9565b604082019050919050565b60006020820190508181036000830152612834816127f8565b9050919050565b7f4f776e61626c653a2063616c6c6572206973206e6f7420746865206f776e6572600082015250565b60006128716020836117e9565b915061287c8261283b565b602082019050919050565b600060208201905081810360008301526128a081612864565b905091905056fea2646970667358221220ca636c1586626e4c140fa8440063a23b7689231e51ceede4071e857b07b2e3fd64736f6c634300081a0033",
  "linkReferences": {},
  "deployedLinkReferences": {}
}